{
  "contractName": "DaughterAuction",
  "abi": [
    {
      "constant": false,
      "inputs": [
        {
          "name": "addr",
          "type": "address"
        }
      ],
      "name": "setOliOrigin",
      "outputs": [],
      "payable": false,
      "stateMutability": "nonpayable",
      "type": "function"
    },
    {
      "constant": false,
      "inputs": [
        {
          "name": "_amount",
          "type": "uint16"
        },
        {
          "name": "_rate",
          "type": "uint8"
        }
      ],
      "name": "bid",
      "outputs": [],
      "payable": false,
      "stateMutability": "nonpayable",
      "type": "function"
    },
    {
      "constant": false,
      "inputs": [
        {
          "name": "addr",
          "type": "address"
        }
      ],
      "name": "setOliCoin",
      "outputs": [],
      "payable": false,
      "stateMutability": "nonpayable",
      "type": "function"
    },
    {
      "constant": false,
      "inputs": [
        {
          "name": "addr",
          "type": "address"
        }
      ],
      "name": "setDynamicGridFee",
      "outputs": [],
      "payable": false,
      "stateMutability": "nonpayable",
      "type": "function"
    },
    {
      "constant": false,
      "inputs": [],
      "name": "kill",
      "outputs": [],
      "payable": false,
      "stateMutability": "nonpayable",
      "type": "function"
    },
    {
      "constant": false,
      "inputs": [],
      "name": "resett",
      "outputs": [],
      "payable": false,
      "stateMutability": "nonpayable",
      "type": "function"
    },
    {
      "constant": true,
      "inputs": [],
      "name": "get_producer",
      "outputs": [
        {
          "name": "",
          "type": "address[]"
        }
      ],
      "payable": false,
      "stateMutability": "view",
      "type": "function"
    },
    {
      "constant": true,
      "inputs": [
        {
          "name": "_rate",
          "type": "uint8"
        }
      ],
      "name": "get_sRate",
      "outputs": [
        {
          "name": "",
          "type": "uint16"
        }
      ],
      "payable": false,
      "stateMutability": "view",
      "type": "function"
    },
    {
      "constant": true,
      "inputs": [],
      "name": "get_consumer",
      "outputs": [
        {
          "name": "",
          "type": "address[]"
        }
      ],
      "payable": false,
      "stateMutability": "view",
      "type": "function"
    },
    {
      "constant": true,
      "inputs": [
        {
          "name": "_rate",
          "type": "uint8"
        }
      ],
      "name": "get_dRate",
      "outputs": [
        {
          "name": "",
          "type": "uint16"
        }
      ],
      "payable": false,
      "stateMutability": "view",
      "type": "function"
    },
    {
      "constant": true,
      "inputs": [],
      "name": "maxRate",
      "outputs": [
        {
          "name": "",
          "type": "uint8"
        }
      ],
      "payable": false,
      "stateMutability": "view",
      "type": "function"
    },
    {
      "constant": false,
      "inputs": [],
      "name": "breakEven",
      "outputs": [],
      "payable": false,
      "stateMutability": "nonpayable",
      "type": "function"
    },
    {
      "inputs": [],
      "payable": false,
      "stateMutability": "nonpayable",
      "type": "constructor"
    },
    {
      "anonymous": false,
      "inputs": [
        {
          "indexed": true,
          "name": "gaddr",
          "type": "address"
        },
        {
          "indexed": false,
          "name": "grate",
          "type": "uint8"
        },
        {
          "indexed": false,
          "name": "gamount",
          "type": "uint16"
        }
      ],
      "name": "NewGenBid",
      "type": "event"
    },
    {
      "anonymous": false,
      "inputs": [
        {
          "indexed": true,
          "name": "caddr",
          "type": "address"
        },
        {
          "indexed": false,
          "name": "crate",
          "type": "uint8"
        },
        {
          "indexed": false,
          "name": "camount",
          "type": "uint16"
        }
      ],
      "name": "NewConBid",
      "type": "event"
    },
    {
      "anonymous": false,
      "inputs": [
        {
          "indexed": false,
          "name": "cbid",
          "type": "uint8"
        }
      ],
      "name": "NewMcp",
      "type": "event"
    }
  ],
  "bytecode": "0x6060604052600a600b60016101000a81548160ff021916908360ff160217905550341561002b57600080fd5b336000806101000a81548173ffffffffffffffffffffffffffffffffffffffff021916908373ffffffffffffffffffffffffffffffffffffffff16021790555062010730600360146101000a81548163ffffffff021916908363ffffffff160217905550613d048061009e6000396000f3006060604052600436106100ba576000357c0100000000000000000000000000000000000000000000000000000000900463ffffffff168063103fecb7146100bf5780631d0556c7146100f8578063292edb491461012b5780632f761fb31461016457806341c0e1b51461019d5780634944aec5146101b25780635c53284d146101c7578063677d18a914610231578063908ab8e0146102735780639cac22d9146102dd578063ece1d6e51461031f578063f7f498401461034e575b600080fd5b34156100ca57600080fd5b6100f6600480803573ffffffffffffffffffffffffffffffffffffffff16906020019091905050610363565b005b341561010357600080fd5b610129600480803561ffff1690602001909190803560ff169060200190919050506103a7565b005b341561013657600080fd5b610162600480803573ffffffffffffffffffffffffffffffffffffffff16906020019091905050610dea565b005b341561016f57600080fd5b61019b600480803573ffffffffffffffffffffffffffffffffffffffff16906020019091905050610e2e565b005b34156101a857600080fd5b6101b0610e72565b005b34156101bd57600080fd5b6101c5610f03565b005b34156101d257600080fd5b6101da611184565b6040518080602001828103825283818151815260200191508051906020019060200280838360005b8381101561021d578082015181840152602081019050610202565b505050509050019250505060405180910390f35b341561023c57600080fd5b610255600480803560ff16906020019091905050611218565b604051808261ffff1661ffff16815260200191505060405180910390f35b341561027e57600080fd5b610286611249565b6040518080602001828103825283818151815260200191508051906020019060200280838360005b838110156102c95780820151818401526020810190506102ae565b505050509050019250505060405180910390f35b34156102e857600080fd5b610301600480803560ff169060200190919050506112dd565b604051808261ffff1661ffff16815260200191505060405180910390f35b341561032a57600080fd5b61033261130e565b604051808260ff1660ff16815260200191505060405180910390f35b341561035957600080fd5b610361611321565b005b80600160006101000a81548173ffffffffffffffffffffffffffffffffffffffff021916908373ffffffffffffffffffffffffffffffffffffffff16021790555050565b600060ff16600160009054906101000a900473ffffffffffffffffffffffffffffffffffffffff1673ffffffffffffffffffffffffffffffffffffffff16632fe99b9b336000604051602001526040518263ffffffff167c0100000000000000000000000000000000000000000000000000000000028152600401808273ffffffffffffffffffffffffffffffffffffffff1673ffffffffffffffffffffffffffffffffffffffff168152602001915050602060405180830381600087803b151561047157600080fd5b6102c65a03f1151561048257600080fd5b5050506040518051905060ff16101580156105835750600560ff16600160009054906101000a900473ffffffffffffffffffffffffffffffffffffffff1673ffffffffffffffffffffffffffffffffffffffff16632fe99b9b336000604051602001526040518263ffffffff167c0100000000000000000000000000000000000000000000000000000000028152600401808273ffffffffffffffffffffffffffffffffffffffff1673ffffffffffffffffffffffffffffffffffffffff168152602001915050602060405180830381600087803b151561056257600080fd5b6102c65a03f1151561057357600080fd5b5050506040518051905060ff1611155b80156105975750600061ffff168261ffff16115b801561069f5750600160009054906101000a900473ffffffffffffffffffffffffffffffffffffffff1673ffffffffffffffffffffffffffffffffffffffff166362f6b0ec326000604051602001526040518263ffffffff167c0100000000000000000000000000000000000000000000000000000000028152600401808273ffffffffffffffffffffffffffffffffffffffff1673ffffffffffffffffffffffffffffffffffffffff168152602001915050602060405180830381600087803b151561066357600080fd5b6102c65a03f1151561067457600080fd5b5050506040518051905063ffffffff16600360149054906101000a900463ffffffff1663ffffffff16145b156108c75760408051908101604052808260ff1681526020018361ffff16815250600660003373ffffffffffffffffffffffffffffffffffffffff1673ffffffffffffffffffffffffffffffffffffffff16815260200190815260200160002060008201518160000160006101000a81548160ff021916908360ff16021790555060208201518160000160016101000a81548161ffff021916908361ffff160217905550905050600b60009054906101000a900460ff1660ff168160ff16111561077f5780600b60006101000a81548160ff021916908360ff1602179055505b600b60019054906101000a900460ff1660ff168160ff1610156107b85780600b60016101000a81548160ff021916908360ff1602179055505b81600960008360ff1660ff16815260200190815260200160002060008282829054906101000a900461ffff160192506101000a81548161ffff021916908361ffff1602179055503373ffffffffffffffffffffffffffffffffffffffff167fdbbdb6bcd2234cd5661449d8e0e752d726e5b634bb145b9b5026a8d6481d73b58284604051808360ff1660ff1681526020018261ffff1661ffff1681526020019250505060405180910390a2600480548060010182816108779190613c52565b9160005260206000209001600033909190916101000a81548173ffffffffffffffffffffffffffffffffffffffff021916908373ffffffffffffffffffffffffffffffffffffffff160217905550505b600560ff16600160009054906101000a900473ffffffffffffffffffffffffffffffffffffffff1673ffffffffffffffffffffffffffffffffffffffff16632fe99b9b336000604051602001526040518263ffffffff167c0100000000000000000000000000000000000000000000000000000000028152600401808273ffffffffffffffffffffffffffffffffffffffff1673ffffffffffffffffffffffffffffffffffffffff168152602001915050602060405180830381600087803b151561099157600080fd5b6102c65a03f115156109a257600080fd5b5050506040518051905060ff16118015610aa25750600760ff16600160009054906101000a900473ffffffffffffffffffffffffffffffffffffffff1673ffffffffffffffffffffffffffffffffffffffff16632fe99b9b336000604051602001526040518263ffffffff167c0100000000000000000000000000000000000000000000000000000000028152600401808273ffffffffffffffffffffffffffffffffffffffff1673ffffffffffffffffffffffffffffffffffffffff168152602001915050602060405180830381600087803b1515610a8157600080fd5b6102c65a03f11515610a9257600080fd5b5050506040518051905060ff1611155b8015610ab65750600061ffff168261ffff16115b8015610bbe5750600160009054906101000a900473ffffffffffffffffffffffffffffffffffffffff1673ffffffffffffffffffffffffffffffffffffffff166362f6b0ec326000604051602001526040518263ffffffff167c0100000000000000000000000000000000000000000000000000000000028152600401808273ffffffffffffffffffffffffffffffffffffffff1673ffffffffffffffffffffffffffffffffffffffff168152602001915050602060405180830381600087803b1515610b8257600080fd5b6102c65a03f11515610b9357600080fd5b5050506040518051905063ffffffff16600360149054906101000a900463ffffffff1663ffffffff16145b15610de65760408051908101604052808260ff1681526020018361ffff16815250600760003373ffffffffffffffffffffffffffffffffffffffff1673ffffffffffffffffffffffffffffffffffffffff16815260200190815260200160002060008201518160000160006101000a81548160ff021916908360ff16021790555060208201518160000160016101000a81548161ffff021916908361ffff160217905550905050600b60009054906101000a900460ff1660ff168160ff161115610c9e5780600b60006101000a81548160ff021916908360ff1602179055505b600b60019054906101000a900460ff1660ff168160ff161015610cd75780600b60016101000a81548160ff021916908360ff1602179055505b81600a60008360ff1660ff16815260200190815260200160002060008282829054906101000a900461ffff160192506101000a81548161ffff021916908361ffff1602179055503373ffffffffffffffffffffffffffffffffffffffff167f47eee071b05295625bf22da8784f54911a1ec12d81d5b6a6f25de72c60580ab28284604051808360ff1660ff1681526020018261ffff1661ffff1681526020019250505060405180910390a260058054806001018281610d969190613c52565b9160005260206000209001600033909190916101000a81548173ffffffffffffffffffffffffffffffffffffffff021916908373ffffffffffffffffffffffffffffffffffffffff160217905550505b5050565b80600260006101000a81548173ffffffffffffffffffffffffffffffffffffffff021916908373ffffffffffffffffffffffffffffffffffffffff16021790555050565b80600360006101000a81548173ffffffffffffffffffffffffffffffffffffffff021916908373ffffffffffffffffffffffffffffffffffffffff16021790555050565b6000809054906101000a900473ffffffffffffffffffffffffffffffffffffffff1673ffffffffffffffffffffffffffffffffffffffff163373ffffffffffffffffffffffffffffffffffffffff161415610f01576000809054906101000a900473ffffffffffffffffffffffffffffffffffffffff1673ffffffffffffffffffffffffffffffffffffffff16ff5b565b600060046000610f139190613c7e565b60056000610f219190613c7e565b600090505b600b60009054906101000a900460ff1660ff168160ff161015610fba576000600960008360ff1660ff16815260200190815260200160002060006101000a81548161ffff021916908361ffff1602179055506000600a60008360ff1660ff16815260200190815260200160002060006101000a81548161ffff021916908361ffff1602179055508080600101915050610f26565b600a600b60006101000a81548160ff021916908360ff160217905550600a600b60016101000a81548160ff021916908360ff160217905550600360009054906101000a900473ffffffffffffffffffffffffffffffffffffffff1673ffffffffffffffffffffffffffffffffffffffff1663c687df68600160009054906101000a900473ffffffffffffffffffffffffffffffffffffffff1673ffffffffffffffffffffffffffffffffffffffff166362f6b0ec326000604051602001526040518263ffffffff167c0100000000000000000000000000000000000000000000000000000000028152600401808273ffffffffffffffffffffffffffffffffffffffff1673ffffffffffffffffffffffffffffffffffffffff168152602001915050602060405180830381600087803b15156110f557600080fd5b6102c65a03f1151561110657600080fd5b505050604051805190506040518263ffffffff167c0100000000000000000000000000000000000000000000000000000000028152600401808263ffffffff1663ffffffff168152602001915050600060405180830381600087803b151561116d57600080fd5b6102c65a03f1151561117e57600080fd5b50505050565b61118c613c9f565b600480548060200260200160405190810160405280929190818152602001828054801561120e57602002820191906000526020600020905b8160009054906101000a900473ffffffffffffffffffffffffffffffffffffffff1673ffffffffffffffffffffffffffffffffffffffff16815260200190600101908083116111c4575b5050505050905090565b6000600960008360ff1660ff16815260200190815260200160002060009054906101000a900461ffff169050919050565b611251613c9f565b60058054806020026020016040519081016040528092919081815260200182805480156112d357602002820191906000526020600020905b8160009054906101000a900473ffffffffffffffffffffffffffffffffffffffff1673ffffffffffffffffffffffffffffffffffffffff1681526020019060010190808311611289575b5050505050905090565b6000600a60008360ff1660ff16815260200190815260200160002060009054906101000a900461ffff169050919050565b600b60009054906101000a900460ff1681565b6000806000806000600b60009054906101000a900460ff169450600193505b600b60009054906101000a900460ff1660ff168460ff1611151561145657600960006001860360ff1660ff16815260200190815260200160002060009054906101000a900461ffff16600960008660ff1660ff16815260200190815260200160002060008282829054906101000a900461ffff160192506101000a81548161ffff021916908361ffff160217905550600a60008660ff1660ff16815260200190815260200160002060009054906101000a900461ffff16600a60006001880360ff1660ff16815260200190815260200160002060008282829054906101000a900461ffff160192506101000a81548161ffff021916908361ffff1602179055508480600190039550508380600101945050611340565b600092505b600b60009054906101000a900460ff1660ff168360ff16111515613c4b57600a60008460ff1660ff16815260200190815260200160002060009054906101000a900461ffff1661ffff16600960008560ff1660ff16815260200190815260200160002060009054906101000a900461ffff1661ffff16101515613c3e57600960006001850360ff1660ff16815260200190815260200160002060009054906101000a900461ffff1661ffff16600a60008560ff1660ff16815260200190815260200160002060009054906101000a900461ffff1661ffff1611156115e8577ff0d05aa95794532a2a1c0354b270e6bcfe414b95452ceb74e0df8b38e7ac0c2e83604051808260ff1660ff16815260200191505060405180910390a1600960008460ff1660ff16815260200190815260200160002060009054906101000a900461ffff16600a60008560ff1660ff16815260200190815260200160002060009054906101000a900461ffff1603600860006101000a81548161ffff021916908361ffff1602179055506116a5565b7ff0d05aa95794532a2a1c0354b270e6bcfe414b95452ceb74e0df8b38e7ac0c2e60018403604051808260ff1660ff16815260200191505060405180910390a1600960006001850360ff1660ff16815260200190815260200160002060009054906101000a900461ffff16600a60006001860360ff1660ff16815260200190815260200160002060009054906101000a900461ffff1603600860006101000a81548161ffff021916908361ffff1602179055508280600190039350505b600091505b6004805490508260ff161015612966578260ff166006600060048560ff168154811015156116d457fe5b906000526020600020900160009054906101000a900473ffffffffffffffffffffffffffffffffffffffff1673ffffffffffffffffffffffffffffffffffffffff1673ffffffffffffffffffffffffffffffffffffffff16815260200190815260200160002060000160009054906101000a900460ff1660ff1610156120c557600260009054906101000a900473ffffffffffffffffffffffffffffffffffffffff1673ffffffffffffffffffffffffffffffffffffffff1663c53b6f4460048460ff168154811015156117a457fe5b906000526020600020900160009054906101000a900473ffffffffffffffffffffffffffffffffffffffff166006600060048760ff168154811015156117e657fe5b906000526020600020900160009054906101000a900473ffffffffffffffffffffffffffffffffffffffff1673ffffffffffffffffffffffffffffffffffffffff1673ffffffffffffffffffffffffffffffffffffffff16815260200190815260200160002060000160019054906101000a900461ffff16600360009054906101000a900473ffffffffffffffffffffffffffffffffffffffff1673ffffffffffffffffffffffffffffffffffffffff1663c3d9261b60048860ff168154811015156118ae57fe5b906000526020600020900160009054906101000a900473ffffffffffffffffffffffffffffffffffffffff166000604051602001526040518263ffffffff167c0100000000000000000000000000000000000000000000000000000000028152600401808273ffffffffffffffffffffffffffffffffffffffff1673ffffffffffffffffffffffffffffffffffffffff168152602001915050602060405180830381600087803b151561196057600080fd5b6102c65a03f1151561197157600080fd5b505050604051805190506006600060048960ff1681548110151561199157fe5b906000526020600020900160009054906101000a900473ffffffffffffffffffffffffffffffffffffffff1673ffffffffffffffffffffffffffffffffffffffff1673ffffffffffffffffffffffffffffffffffffffff16815260200190815260200160002060000160009054906101000a900460ff160360ff160261ffff166040518363ffffffff167c0100000000000000000000000000000000000000000000000000000000028152600401808373ffffffffffffffffffffffffffffffffffffffff1673ffffffffffffffffffffffffffffffffffffffff1681526020018260030b60030b815260200192505050600060405180830381600087803b1515611a9b57600080fd5b6102c65a03f11515611aac57600080fd5b505050600260009054906101000a900473ffffffffffffffffffffffffffffffffffffffff1673ffffffffffffffffffffffffffffffffffffffff1663c53b6f44600160009054906101000a900473ffffffffffffffffffffffffffffffffffffffff1673ffffffffffffffffffffffffffffffffffffffff16638ac8916c600160009054906101000a900473ffffffffffffffffffffffffffffffffffffffff1673ffffffffffffffffffffffffffffffffffffffff166362f6b0ec60048860ff16815481101515611b7b57fe5b906000526020600020900160009054906101000a900473ffffffffffffffffffffffffffffffffffffffff166000604051602001526040518263ffffffff167c0100000000000000000000000000000000000000000000000000000000028152600401808273ffffffffffffffffffffffffffffffffffffffff1673ffffffffffffffffffffffffffffffffffffffff168152602001915050602060405180830381600087803b1515611c2d57600080fd5b6102c65a03f11515611c3e57600080fd5b505050604051805190506000604051602001526040518263ffffffff167c0100000000000000000000000000000000000000000000000000000000028152600401808263ffffffff1663ffffffff168152602001915050602060405180830381600087803b1515611cae57600080fd5b6102c65a03f11515611cbf57600080fd5b505050604051805190506006600060048760ff16815481101515611cdf57fe5b906000526020600020900160009054906101000a900473ffffffffffffffffffffffffffffffffffffffff1673ffffffffffffffffffffffffffffffffffffffff1673ffffffffffffffffffffffffffffffffffffffff16815260200190815260200160002060000160019054906101000a900461ffff16600360009054906101000a900473ffffffffffffffffffffffffffffffffffffffff1673ffffffffffffffffffffffffffffffffffffffff1663c3d9261b60048860ff16815481101515611da757fe5b906000526020600020900160009054906101000a900473ffffffffffffffffffffffffffffffffffffffff166000604051602001526040518263ffffffff167c0100000000000000000000000000000000000000000000000000000000028152600401808273ffffffffffffffffffffffffffffffffffffffff1673ffffffffffffffffffffffffffffffffffffffff168152602001915050602060405180830381600087803b1515611e5957600080fd5b6102c65a03f11515611e6a57600080fd5b5050506040518051905060ff160261ffff166040518363ffffffff167c0100000000000000000000000000000000000000000000000000000000028152600401808373ffffffffffffffffffffffffffffffffffffffff1673ffffffffffffffffffffffffffffffffffffffff1681526020018260030b60030b815260200192505050600060405180830381600087803b1515611f0657600080fd5b6102c65a03f11515611f1757600080fd5b505050600360009054906101000a900473ffffffffffffffffffffffffffffffffffffffff1673ffffffffffffffffffffffffffffffffffffffff166336b8b78460048460ff16815481101515611f6a57fe5b906000526020600020900160009054906101000a900473ffffffffffffffffffffffffffffffffffffffff166006600060048760ff16815481101515611fac57fe5b906000526020600020900160009054906101000a900473ffffffffffffffffffffffffffffffffffffffff1673ffffffffffffffffffffffffffffffffffffffff1673ffffffffffffffffffffffffffffffffffffffff16815260200190815260200160002060000160019054906101000a900461ffff166040518363ffffffff167c0100000000000000000000000000000000000000000000000000000000028152600401808373ffffffffffffffffffffffffffffffffffffffff1673ffffffffffffffffffffffffffffffffffffffff1681526020018261ffff1661ffff16815260200192505050600060405180830381600087803b15156120b057600080fd5b6102c65a03f115156120c157600080fd5b5050505b8260ff166006600060048560ff168154811015156120df57fe5b906000526020600020900160009054906101000a900473ffffffffffffffffffffffffffffffffffffffff1673ffffffffffffffffffffffffffffffffffffffff1673ffffffffffffffffffffffffffffffffffffffff16815260200190815260200160002060000160009054906101000a900460ff1660ff16141561295957600260009054906101000a900473ffffffffffffffffffffffffffffffffffffffff1673ffffffffffffffffffffffffffffffffffffffff1663c53b6f4460048460ff168154811015156121af57fe5b906000526020600020900160009054906101000a900473ffffffffffffffffffffffffffffffffffffffff16600860009054906101000a900461ffff16600360009054906101000a900473ffffffffffffffffffffffffffffffffffffffff1673ffffffffffffffffffffffffffffffffffffffff1663c3d9261b60048860ff1681548110151561223c57fe5b906000526020600020900160009054906101000a900473ffffffffffffffffffffffffffffffffffffffff166000604051602001526040518263ffffffff167c0100000000000000000000000000000000000000000000000000000000028152600401808273ffffffffffffffffffffffffffffffffffffffff1673ffffffffffffffffffffffffffffffffffffffff168152602001915050602060405180830381600087803b15156122ee57600080fd5b6102c65a03f115156122ff57600080fd5b505050604051805190506006600060048960ff1681548110151561231f57fe5b906000526020600020900160009054906101000a900473ffffffffffffffffffffffffffffffffffffffff1673ffffffffffffffffffffffffffffffffffffffff1673ffffffffffffffffffffffffffffffffffffffff16815260200190815260200160002060000160009054906101000a900460ff160360ff160261ffff166040518363ffffffff167c0100000000000000000000000000000000000000000000000000000000028152600401808373ffffffffffffffffffffffffffffffffffffffff1673ffffffffffffffffffffffffffffffffffffffff1681526020018260030b60030b815260200192505050600060405180830381600087803b151561242957600080fd5b6102c65a03f1151561243a57600080fd5b505050600260009054906101000a900473ffffffffffffffffffffffffffffffffffffffff1673ffffffffffffffffffffffffffffffffffffffff1663c53b6f44600160009054906101000a900473ffffffffffffffffffffffffffffffffffffffff1673ffffffffffffffffffffffffffffffffffffffff16638ac8916c600160009054906101000a900473ffffffffffffffffffffffffffffffffffffffff1673ffffffffffffffffffffffffffffffffffffffff166362f6b0ec60048860ff1681548110151561250957fe5b906000526020600020900160009054906101000a900473ffffffffffffffffffffffffffffffffffffffff166000604051602001526040518263ffffffff167c0100000000000000000000000000000000000000000000000000000000028152600401808273ffffffffffffffffffffffffffffffffffffffff1673ffffffffffffffffffffffffffffffffffffffff168152602001915050602060405180830381600087803b15156125bb57600080fd5b6102c65a03f115156125cc57600080fd5b505050604051805190506000604051602001526040518263ffffffff167c0100000000000000000000000000000000000000000000000000000000028152600401808263ffffffff1663ffffffff168152602001915050602060405180830381600087803b151561263c57600080fd5b6102c65a03f1151561264d57600080fd5b50505060405180519050600860009054906101000a900461ffff16600360009054906101000a900473ffffffffffffffffffffffffffffffffffffffff1673ffffffffffffffffffffffffffffffffffffffff1663c3d9261b60048860ff168154811015156126b857fe5b906000526020600020900160009054906101000a900473ffffffffffffffffffffffffffffffffffffffff166000604051602001526040518263ffffffff167c0100000000000000000000000000000000000000000000000000000000028152600401808273ffffffffffffffffffffffffffffffffffffffff1673ffffffffffffffffffffffffffffffffffffffff168152602001915050602060405180830381600087803b151561276a57600080fd5b6102c65a03f1151561277b57600080fd5b5050506040518051905060ff160261ffff166040518363ffffffff167c0100000000000000000000000000000000000000000000000000000000028152600401808373ffffffffffffffffffffffffffffffffffffffff1673ffffffffffffffffffffffffffffffffffffffff1681526020018260030b60030b815260200192505050600060405180830381600087803b151561281757600080fd5b6102c65a03f1151561282857600080fd5b505050600360009054906101000a900473ffffffffffffffffffffffffffffffffffffffff1673ffffffffffffffffffffffffffffffffffffffff166336b8b78460048460ff1681548110151561287b57fe5b906000526020600020900160009054906101000a900473ffffffffffffffffffffffffffffffffffffffff16600860009054906101000a900461ffff166040518363ffffffff167c0100000000000000000000000000000000000000000000000000000000028152600401808373ffffffffffffffffffffffffffffffffffffffff1673ffffffffffffffffffffffffffffffffffffffff1681526020018261ffff1661ffff16815260200192505050600060405180830381600087803b151561294457600080fd5b6102c65a03f1151561295557600080fd5b5050505b81806001019250506116aa565b600090505b6005805490508160ff161015613c39578260ff166007600060058460ff1681548110151561299557fe5b906000526020600020900160009054906101000a900473ffffffffffffffffffffffffffffffffffffffff1673ffffffffffffffffffffffffffffffffffffffff1673ffffffffffffffffffffffffffffffffffffffff16815260200190815260200160002060000160009054906101000a900460ff1660ff16111561338f57600260009054906101000a900473ffffffffffffffffffffffffffffffffffffffff1673ffffffffffffffffffffffffffffffffffffffff1663c53b6f4460058360ff16815481101515612a6557fe5b906000526020600020900160009054906101000a900473ffffffffffffffffffffffffffffffffffffffff166007600060058660ff16815481101515612aa757fe5b906000526020600020900160009054906101000a900473ffffffffffffffffffffffffffffffffffffffff1673ffffffffffffffffffffffffffffffffffffffff1673ffffffffffffffffffffffffffffffffffffffff16815260200190815260200160002060000160019054906101000a900461ffff16600360009054906101000a900473ffffffffffffffffffffffffffffffffffffffff1673ffffffffffffffffffffffffffffffffffffffff1663c3d9261b60058760ff16815481101515612b6f57fe5b906000526020600020900160009054906101000a900473ffffffffffffffffffffffffffffffffffffffff166000604051602001526040518263ffffffff167c0100000000000000000000000000000000000000000000000000000000028152600401808273ffffffffffffffffffffffffffffffffffffffff1673ffffffffffffffffffffffffffffffffffffffff168152602001915050602060405180830381600087803b1515612c2157600080fd5b6102c65a03f11515612c3257600080fd5b505050604051805190506007600060058860ff16815481101515612c5257fe5b906000526020600020900160009054906101000a900473ffffffffffffffffffffffffffffffffffffffff1673ffffffffffffffffffffffffffffffffffffffff1673ffffffffffffffffffffffffffffffffffffffff16815260200190815260200160002060000160009054906101000a900460ff160160ff160261ffff166000036040518363ffffffff167c0100000000000000000000000000000000000000000000000000000000028152600401808373ffffffffffffffffffffffffffffffffffffffff1673ffffffffffffffffffffffffffffffffffffffff1681526020018260030b60030b815260200192505050600060405180830381600087803b1515612d5f57600080fd5b6102c65a03f11515612d7057600080fd5b505050600260009054906101000a900473ffffffffffffffffffffffffffffffffffffffff1673ffffffffffffffffffffffffffffffffffffffff1663c53b6f44600160009054906101000a900473ffffffffffffffffffffffffffffffffffffffff1673ffffffffffffffffffffffffffffffffffffffff16638ac8916c600160009054906101000a900473ffffffffffffffffffffffffffffffffffffffff1673ffffffffffffffffffffffffffffffffffffffff166362f6b0ec60058760ff16815481101515612e3f57fe5b906000526020600020900160009054906101000a900473ffffffffffffffffffffffffffffffffffffffff166000604051602001526040518263ffffffff167c0100000000000000000000000000000000000000000000000000000000028152600401808273ffffffffffffffffffffffffffffffffffffffff1673ffffffffffffffffffffffffffffffffffffffff168152602001915050602060405180830381600087803b1515612ef157600080fd5b6102c65a03f11515612f0257600080fd5b505050604051805190506000604051602001526040518263ffffffff167c0100000000000000000000000000000000000000000000000000000000028152600401808263ffffffff1663ffffffff168152602001915050602060405180830381600087803b1515612f7257600080fd5b6102c65a03f11515612f8357600080fd5b505050604051805190506006600060058660ff16815481101515612fa357fe5b906000526020600020900160009054906101000a900473ffffffffffffffffffffffffffffffffffffffff1673ffffffffffffffffffffffffffffffffffffffff1673ffffffffffffffffffffffffffffffffffffffff16815260200190815260200160002060000160019054906101000a900461ffff16600360009054906101000a900473ffffffffffffffffffffffffffffffffffffffff1673ffffffffffffffffffffffffffffffffffffffff1663c3d9261b60058760ff1681548110151561306b57fe5b906000526020600020900160009054906101000a900473ffffffffffffffffffffffffffffffffffffffff166000604051602001526040518263ffffffff167c0100000000000000000000000000000000000000000000000000000000028152600401808273ffffffffffffffffffffffffffffffffffffffff1673ffffffffffffffffffffffffffffffffffffffff168152602001915050602060405180830381600087803b151561311d57600080fd5b6102c65a03f1151561312e57600080fd5b5050506040518051905060ff160261ffff166040518363ffffffff167c0100000000000000000000000000000000000000000000000000000000028152600401808373ffffffffffffffffffffffffffffffffffffffff1673ffffffffffffffffffffffffffffffffffffffff1681526020018260030b60030b815260200192505050600060405180830381600087803b15156131ca57600080fd5b6102c65a03f115156131db57600080fd5b505050600360009054906101000a900473ffffffffffffffffffffffffffffffffffffffff1673ffffffffffffffffffffffffffffffffffffffff1663f2e777f760058360ff1681548110151561322e57fe5b906000526020600020900160009054906101000a900473ffffffffffffffffffffffffffffffffffffffff166006600060058660ff1681548110151561327057fe5b906000526020600020900160009054906101000a900473ffffffffffffffffffffffffffffffffffffffff1673ffffffffffffffffffffffffffffffffffffffff1673ffffffffffffffffffffffffffffffffffffffff16815260200190815260200160002060000160019054906101000a900461ffff166040518363ffffffff167c0100000000000000000000000000000000000000000000000000000000028152600401808373ffffffffffffffffffffffffffffffffffffffff1673ffffffffffffffffffffffffffffffffffffffff1681526020018261ffff1667ffffffffffffffff16815260200192505050600060405180830381600087803b151561337a57600080fd5b6102c65a03f1151561338b57600080fd5b5050505b8260ff166007600060058460ff168154811015156133a957fe5b906000526020600020900160009054906101000a900473ffffffffffffffffffffffffffffffffffffffff1673ffffffffffffffffffffffffffffffffffffffff1673ffffffffffffffffffffffffffffffffffffffff16815260200190815260200160002060000160009054906101000a900460ff1660ff161415613c2c57600260009054906101000a900473ffffffffffffffffffffffffffffffffffffffff1673ffffffffffffffffffffffffffffffffffffffff1663c53b6f4460058360ff1681548110151561347957fe5b906000526020600020900160009054906101000a900473ffffffffffffffffffffffffffffffffffffffff16600860009054906101000a900461ffff16600360009054906101000a900473ffffffffffffffffffffffffffffffffffffffff1673ffffffffffffffffffffffffffffffffffffffff1663c3d9261b60058760ff1681548110151561350657fe5b906000526020600020900160009054906101000a900473ffffffffffffffffffffffffffffffffffffffff166000604051602001526040518263ffffffff167c0100000000000000000000000000000000000000000000000000000000028152600401808273ffffffffffffffffffffffffffffffffffffffff1673ffffffffffffffffffffffffffffffffffffffff168152602001915050602060405180830381600087803b15156135b857600080fd5b6102c65a03f115156135c957600080fd5b505050604051805190506007600060058860ff168154811015156135e957fe5b906000526020600020900160009054906101000a900473ffffffffffffffffffffffffffffffffffffffff1673ffffffffffffffffffffffffffffffffffffffff1673ffffffffffffffffffffffffffffffffffffffff16815260200190815260200160002060000160009054906101000a900460ff160160ff160261ffff166000036040518363ffffffff167c0100000000000000000000000000000000000000000000000000000000028152600401808373ffffffffffffffffffffffffffffffffffffffff1673ffffffffffffffffffffffffffffffffffffffff1681526020018260030b60030b815260200192505050600060405180830381600087803b15156136f657600080fd5b6102c65a03f1151561370757600080fd5b505050600260009054906101000a900473ffffffffffffffffffffffffffffffffffffffff1673ffffffffffffffffffffffffffffffffffffffff1663c53b6f44600160009054906101000a900473ffffffffffffffffffffffffffffffffffffffff1673ffffffffffffffffffffffffffffffffffffffff16638ac8916c600160009054906101000a900473ffffffffffffffffffffffffffffffffffffffff1673ffffffffffffffffffffffffffffffffffffffff166362f6b0ec60058760ff168154811015156137d657fe5b906000526020600020900160009054906101000a900473ffffffffffffffffffffffffffffffffffffffff166000604051602001526040518263ffffffff167c0100000000000000000000000000000000000000000000000000000000028152600401808273ffffffffffffffffffffffffffffffffffffffff1673ffffffffffffffffffffffffffffffffffffffff168152602001915050602060405180830381600087803b151561388857600080fd5b6102c65a03f1151561389957600080fd5b505050604051805190506000604051602001526040518263ffffffff167c0100000000000000000000000000000000000000000000000000000000028152600401808263ffffffff1663ffffffff168152602001915050602060405180830381600087803b151561390957600080fd5b6102c65a03f1151561391a57600080fd5b50505060405180519050600860009054906101000a900461ffff16600360009054906101000a900473ffffffffffffffffffffffffffffffffffffffff1673ffffffffffffffffffffffffffffffffffffffff1663c3d9261b60058760ff1681548110151561398557fe5b906000526020600020900160009054906101000a900473ffffffffffffffffffffffffffffffffffffffff166000604051602001526040518263ffffffff167c0100000000000000000000000000000000000000000000000000000000028152600401808273ffffffffffffffffffffffffffffffffffffffff1673ffffffffffffffffffffffffffffffffffffffff168152602001915050602060405180830381600087803b1515613a3757600080fd5b6102c65a03f11515613a4857600080fd5b5050506040518051905060ff160261ffff166040518363ffffffff167c0100000000000000000000000000000000000000000000000000000000028152600401808373ffffffffffffffffffffffffffffffffffffffff1673ffffffffffffffffffffffffffffffffffffffff1681526020018260030b60030b815260200192505050600060405180830381600087803b1515613ae457600080fd5b6102c65a03f11515613af557600080fd5b505050600360009054906101000a900473ffffffffffffffffffffffffffffffffffffffff1673ffffffffffffffffffffffffffffffffffffffff1663f2e777f760058360ff16815481101515613b4857fe5b906000526020600020900160009054906101000a900473ffffffffffffffffffffffffffffffffffffffff16600860009054906101000a900461ffff166040518363ffffffff167c0100000000000000000000000000000000000000000000000000000000028152600401808373ffffffffffffffffffffffffffffffffffffffff1673ffffffffffffffffffffffffffffffffffffffff1681526020018261ffff1667ffffffffffffffff16815260200192505050600060405180830381600087803b1515613c1757600080fd5b6102c65a03f11515613c2857600080fd5b5050505b808060010191505061296b565b613c4b565b828060010193505061145b565b5050505050565b815481835581811511613c7957818360005260206000209182019101613c789190613cb3565b5b505050565b5080546000825590600052602060002090810190613c9c9190613cb3565b50565b602060405190810160405280600081525090565b613cd591905b80821115613cd1576000816000905550600101613cb9565b5090565b905600a165627a7a72305820d12f1fa1a9a3cc1cfbf8de3b8eeff49ce9cf01bbbc29de020077245cc79ae11e0029",
  "source": "pragma solidity ^0.4.11;\n\nimport \"./mortal.sol\";\n\n//Agents, DNO,TNOs mapping\ncontract OliDetail is mortal{\n  \n    mapping (address => Details) OliAddressMapping;\n    mapping (uint32 => address) GSO;\n\n\n    event newAddedOli(address paymentAddress, uint32 latOfLocation, uint32 longOfLocation);\n    \n    struct Details {\n        uint32 latitude;\n        uint32 longitude;\n        uint32 trafoid;\n        uint8 ckt; //In case of Prosumers' ckt rep. --> 1st ckt:0; 2nd ckt:1; In case of Trafo 4branches --> 4 ckt\n        uint8 _type; //0:PV, 1:Wind, 2:CCP, 3:CHP, 4:Coal, 5:battery+, 6: battery-, 7:Consumer, 8:DNO\n        uint16[] _pload; // if _type=8 then index:0->trafoload\n    }\n\n    function addOli(address oli, uint32 lat, uint32 long, uint32 trafo, uint8 ckt, uint8 typex, uint16[] pload) onlyowner{\n        OliAddressMapping[oli] = Details(lat, long, trafo, ckt, typex, pload);\n        newAddedOli(oli, lat, long);\n        if (typex==8){\n            GSO[trafo]=oli;\n        }\n    }\n\n    //Oli types passing to Daughter Auction\n    function get_oliType(address _account) constant returns (uint8) {\n        return OliAddressMapping[_account]._type;\n    }\n    //Oli amount passing to Daughter Auction\n    function get_oliPeakLoad(address _account, uint8 _index) constant returns (uint16) {\n        return OliAddressMapping[_account]._pload[_index];\n    }\n\n    function get_oliCkt(address _account) constant returns (uint8) {\n        return OliAddressMapping[_account].ckt;\n    }\n\n    function get_oliTrafoid(address _account) constant returns (uint32) {\n        return OliAddressMapping[_account].trafoid;\n    }\n    function get_gsoAddr(uint32 _tid) constant returns (address) {\n        return GSO[_tid];\n    }\n    \n}\n\ncontract OliCoin is mortal{\n    //Energy Balance Mapping\n    mapping (address => int32) OliCoinBalance; //Produce->inc & Consume->dec\n    \n    mapping (address =>bool) ContractAddress;\n    \n    // Triggered when tokens are transferred.\n    event Transfer(address indexed _from, address indexed _to, uint16 _value);\n\n    //set contract access\n    function set_ContractAddress(address _contract, bool _tf) onlyowner{\n        ContractAddress[_contract] = _tf;\n    }\n\n    modifier onlyvalidcontract() {\n        require(ContractAddress[msg.sender]);\n        _;\n    }\n\n    //Update CoinBalance\n    function set_OliCoinBalance(address _account, int32 _change) onlyvalidcontract {\n        OliCoinBalance[_account] += _change;\n    }\n    //Delete CoinBalance\n    function del_Coinbalance() {\n        OliCoinBalance[msg.sender] = 0;\n    }\n    \n    // Transfer the balance from owner's account to another account\n    function transfer(address _to, uint16 _amount) returns (bool success) {\n        if (OliCoinBalance[msg.sender] > 0\n        && uint32(OliCoinBalance[msg.sender]) >= _amount\n        && _amount > 0\n        && uint32(OliCoinBalance[_to]) + _amount > uint32(OliCoinBalance[_to])) {\n            OliCoinBalance[msg.sender] -= int32(_amount);\n            OliCoinBalance[_to] += int32(_amount);\n            Transfer(msg.sender, _to, _amount);\n            return true;\n        }\n        else {\n            return false;\n        }\n    }\n    //\n    function get_coinBalance(address caddress) constant returns (int32) {\n        return OliCoinBalance[caddress];\n    }\n}\n\ncontract ParentAuction is mortal{\n    //Account Details Callback function\n    OliDetail origin;\n    function setOliOrigin(address addr) { origin = OliDetail(addr); }\n    //Earn OliCoins\n    OliCoin coin;\n    function setOliCoin(address addr) { coin = OliCoin(addr); }\n    //Bids passing to parent auction\n    //ParentAuction auction;\n    //function setParentAddress(address addr) { auction = ParentAuction(addr); }\n    //gridFee\n    DynamicGridFee dgfee;\n    function setDynamicGridFee(address addr) { dgfee = DynamicGridFee(addr); }\n\n    //uint32 tid;\n    mapping (uint32 => bool) tid;\n    \n    //set conntected transformer\n    function set_ContractAddress(uint32 _tid, bool _tf) onlyowner{\n        tid[_tid] = _tf;\n    }\n\n    address[] _producer;    address[] _consumer;\n    \n    struct Details {\n        uint8 rate; // cents/KW\n        uint16 amount; // Kw\n    }\n    //Bidders Mapping\n    mapping (address => Details) GenBid;\n    mapping (address => Details) ConsBid;\n    mapping (uint8 => uint16) SRate;\n    mapping (uint8 => uint16) DRate;\n    uint8 public maxRate;  uint8 minRate=10;\n    //Bidders event recording\n    event NewGenBid(address indexed gaddr, uint8 grate, uint16 gamount);\n    event NewConBid(address indexed caddr, uint8 crate, uint16 camount);\n    //New mcp\n    event NewMcp(uint8 cbid);\n\n    function bid(uint16 _amount, uint8 _rate) {\n        //Mapping Producer's bidding\n        if ((origin.get_oliType(msg.sender)>=uint8(0))&&(origin.get_oliType(msg.sender)<=uint8(5))&&(_amount>uint16(0))&&(tid[origin.get_oliTrafoid(tx.origin)])) {\n            GenBid[msg.sender] = Details (_rate, _amount); \n            if (_rate > maxRate) {\n                maxRate = _rate;\n            }\n            if (_rate < minRate) {\n                minRate = _rate;\n            }\n            SRate[_rate] += _amount;\n            NewGenBid (msg.sender,_rate, _amount);\n            _producer.push(msg.sender);\n        }\n        //Mapping Consumer's bidding\n        if ((origin.get_oliType(msg.sender) > uint8(5))&&(origin.get_oliType(msg.sender) <= uint8(7))&&(_amount>uint16(0))&&(tid[origin.get_oliTrafoid(tx.origin)])) {\n            ConsBid[msg.sender] = Details (_rate,_amount);\n            if (_rate > maxRate) {\n                maxRate = _rate;\n            }\n            if (_rate < minRate) {\n                minRate = _rate;\n            }\n            DRate[_rate] += _amount;\n            NewConBid (msg.sender, _rate, _amount);\n            _consumer.push(msg.sender);\n        }\n    }\n\n    //Calculating MCP\n    function breakEven() {\n        //Supply/Demand Curve Plotting\n        uint8 _max = maxRate;\n        for (var y=1;y<=maxRate;y++) {\n            SRate[y] += SRate[y-1];\n            DRate[_max-1] += DRate[_max];\n            _max--;\n        }\n\n        //Break-Even Finder\n        for (var v = 0; v <= maxRate; v++) {\n            if (SRate[v] >= DRate[v]) {\n                if (DRate[v] > SRate[v-1]) {\n                    NewMcp(v);\n                }\n                else {\n                    NewMcp(v-1);\n                    v--;\n                }\n                //Losers/Winners Mapping also add bool T/F, about winner/loser\n                for (var q = 0; q < _producer.length; q++){\n                    if(GenBid[_producer[q]].rate <= v) {\n                        //Reward=rate-gFee\n                        coin.set_OliCoinBalance(_producer[q], int32(((GenBid[_producer[q]].rate-dgfee.get_dGFee(_producer[q])) * GenBid[_producer[q]].amount)));\n                        //GSO reward\n                        coin.set_OliCoinBalance(origin.get_gsoAddr(origin.get_oliTrafoid(_producer[q])), int32(dgfee.get_dGFee(_producer[q])*GenBid[_producer[q]].amount));\n                        dgfee.set_trafocamount(_producer[q], GenBid[_producer[q]].amount);\n                    }\n                }\n                for (var r = 0; r < _consumer.length; r++){\n                    if(ConsBid[_consumer[r]].rate >= v) {\n                        //Payable=rate+gfee\n                        coin.set_OliCoinBalance(_consumer[r], -int32(((ConsBid[_consumer[r]].rate+dgfee.get_dGFee(_consumer[r])) * ConsBid[_consumer[r]].amount)));\n                        //GSO Reward\n                        coin.set_OliCoinBalance(origin.get_gsoAddr(origin.get_oliTrafoid(_consumer[r])), int32(dgfee.get_dGFee(_consumer[r])*GenBid[_consumer[r]].amount));\n                        dgfee.set_traforamount(_consumer[r], GenBid[_consumer[r]].amount);\n                    }\n                }\n            break;\n            }\n        }\n    }\n\n    //reset\n    function resett() {\n        delete _producer;\n        delete _consumer;\n        for (var w=0;w<maxRate;w++) {\n            SRate[w]=0;\n            DRate[w]=0;\n        }\n        maxRate=10;\n        minRate=10;\n        dgfee.set_tgridFee(67376);\n        dgfee.set_tgridFee(67377);\n    }\n\n    function get_producer() constant returns (address[]) {\n        return _producer;\n    }\n    function get_consumer() constant returns (address[]) {\n        return _consumer;\n    }\n\n    function get_sRate(uint8 _rate) constant returns (uint16) {\n        return SRate[_rate];\n    }\n\n    function get_dRate(uint8 _rate) constant returns (uint16) {\n        return DRate[_rate];\n    }\n\n\n}\n\ncontract DaughterAuction is mortal{\n    //Account Details Callback function\n    OliDetail origin;\n    function setOliOrigin(address addr) { origin = OliDetail(addr); }\n    //Earn OliCoins\n    OliCoin coin;\n    function setOliCoin(address addr) { coin = OliCoin(addr); }\n    //Bids passing to parent auction\n    //ParentAuction auction;\n    //function setParentAddress(address addr) { auction = ParentAuction(addr); }\n    //gridFee\n    DynamicGridFee dgfee;\n    function setDynamicGridFee(address addr) { dgfee = DynamicGridFee(addr); }\n\n    uint32 tid;\n    \n    function DaughterAuction() {\n        tid=67376;\n    }\n\n    address[] _producer;    address[] _consumer;\n    \n    struct Details {\n        uint8 rate; // cents/KW\n        uint16 amount; // Kw\n    }\n    //Bidders Mapping\n    mapping (address => Details) GenBid;\n    mapping (address => Details) ConsBid;\n    uint16 diff;\n    mapping (uint8 => uint16) SRate;\n    mapping (uint8 => uint16) DRate;\n    uint8 public maxRate;  uint8 minRate=10;\n    //Bidders event recording\n    event NewGenBid(address indexed gaddr, uint8 grate, uint16 gamount);\n    event NewConBid(address indexed caddr, uint8 crate, uint16 camount);\n    //New mcp\n    event NewMcp(uint8 cbid);\n\n    function bid(uint16 _amount, uint8 _rate) {\n        //Subtracting bilateral traded amount if any\n        //if((btrade.get_stockAmount(msg.sender) > uint16(0))&&(_amount > btrade.get_stockAmount(msg.sender))) {_amount = _amount - btrade.get_stockAmount(msg.sender);}\n        //Mapping Producer's bidding\n        //\n        if ((origin.get_oliType(msg.sender)>=uint8(0))&&(origin.get_oliType(msg.sender)<=uint8(5))&&(_amount>uint16(0))&&(tid==(origin.get_oliTrafoid(tx.origin)))) {\n            GenBid[msg.sender] = Details (_rate, _amount); \n            if (_rate > maxRate) {\n                maxRate = _rate;\n            }\n            if (_rate < minRate) {\n                minRate = _rate;\n            }\n            SRate[_rate] += _amount;\n            NewGenBid (msg.sender,_rate, _amount);\n            _producer.push(msg.sender);\n            /*if(btrade.get_stockAmount(msg.sender) > uint16(0)) {\n                coin.set_OliCoinBalance(msg.sender, int32((btrade.get_stockRate(msg.sender) * btrade.get_stockAmount(msg.sender))));\n            }*/\n        }\n        //Mapping Consumer's bidding\n        if ((origin.get_oliType(msg.sender) > uint8(5))&&(origin.get_oliType(msg.sender) <= uint8(7))&&(_amount>uint16(0))&&(tid==(origin.get_oliTrafoid(tx.origin)))) {\n            ConsBid[msg.sender] = Details (_rate,_amount);\n            if (_rate > maxRate) {\n                maxRate = _rate;\n            }\n            if (_rate < minRate) {\n                minRate = _rate;\n            }\n            DRate[_rate] += _amount;\n            NewConBid (msg.sender, _rate, _amount);\n            _consumer.push(msg.sender);\n            /*\n            if(btrade.get_stockAmount(msg.sender) > uint16(0)) {\n                coin.set_OliCoinBalance(msg.sender, -int32((btrade.get_stockRate(msg.sender) * btrade.get_stockAmount(msg.sender))));\n            }*/\n        }\n    }\n\n    //Calculating MCP\n    function breakEven() {\n        //Supply/Demand Curve Plotting\n        uint8 _max = maxRate;\n        for (var y=1;y<=maxRate;y++) {\n            SRate[y] += SRate[y-1];\n            DRate[_max-1] += DRate[_max];\n            _max--;\n        }\n\n        //Break-Even Finder\n        for (var v = 0; v <= maxRate; v++) {\n            if (SRate[v] >= DRate[v]) {\n                if (DRate[v] > SRate[v-1]) {\n                    NewMcp(v);\n                    diff = uint16(DRate[v] - SRate[v]);\n                }\n                else {\n                    NewMcp(v-1);\n                    diff = uint16(DRate[v-1] - SRate[v-1]);\n                    v--;\n                }\n                //Losers/Winners Mapping also add bool T/F, about winner/loser\n                for (var q = 0; q < _producer.length; q++){\n                    if(GenBid[_producer[q]].rate < v) {\n                        //Reward=rate-gFee\n                        coin.set_OliCoinBalance(_producer[q], int32(((GenBid[_producer[q]].rate-dgfee.get_dGFee(_producer[q])) * GenBid[_producer[q]].amount)));\n                        //GSO reward\n                        coin.set_OliCoinBalance(origin.get_gsoAddr(origin.get_oliTrafoid(_producer[q])), int32(dgfee.get_dGFee(_producer[q])*GenBid[_producer[q]].amount));\n                        dgfee.set_cktcamount(_producer[q], GenBid[_producer[q]].amount);\n                    }\n                    if(GenBid[_producer[q]].rate == v) {\n                        //Reward=rate-gFee\n                        coin.set_OliCoinBalance(_producer[q], int32(((GenBid[_producer[q]].rate-dgfee.get_dGFee(_producer[q])) * diff)));\n                        //GSO reward\n                        coin.set_OliCoinBalance(origin.get_gsoAddr(origin.get_oliTrafoid(_producer[q])), int32(dgfee.get_dGFee(_producer[q])*diff));\n                        dgfee.set_cktcamount(_producer[q], diff);\n                    }\n                }\n                for (var r = 0; r < _consumer.length; r++){\n                    if(ConsBid[_consumer[r]].rate > v) {\n                        //Payable=rate+gfee\n                        coin.set_OliCoinBalance(_consumer[r], -int32(((ConsBid[_consumer[r]].rate+dgfee.get_dGFee(_consumer[r])) * ConsBid[_consumer[r]].amount)));\n                        //GSO Reward\n                        coin.set_OliCoinBalance(origin.get_gsoAddr(origin.get_oliTrafoid(_consumer[r])), int32(dgfee.get_dGFee(_consumer[r])*GenBid[_consumer[r]].amount));\n                        dgfee.set_cktramount(_consumer[r], GenBid[_consumer[r]].amount);\n                    }\n                    if(ConsBid[_consumer[r]].rate == v) {\n                        //Payable=rate+gfee\n                        coin.set_OliCoinBalance(_consumer[r], -int32(((ConsBid[_consumer[r]].rate+dgfee.get_dGFee(_consumer[r])) * diff)));\n                        //GSO Reward\n                        coin.set_OliCoinBalance(origin.get_gsoAddr(origin.get_oliTrafoid(_consumer[r])), int32(dgfee.get_dGFee(_consumer[r])*diff));\n                        dgfee.set_cktramount(_consumer[r], diff);\n                    }\n                }\n            break;\n            }\n        }\n    }\n\n    //reset\n    function resett() {\n        delete _producer;\n        delete _consumer;\n        for (var w=0;w<maxRate;w++) {\n            SRate[w]=0;\n            DRate[w]=0;\n        }\n        maxRate=10;\n        minRate=10;\n        dgfee.set_dgridFee(origin.get_oliTrafoid(tx.origin));\n    }\n\n    function get_producer() constant returns (address[]) {\n        return _producer;\n    }\n    function get_consumer() constant returns (address[]) {\n        return _consumer;\n    }\n\n    function get_sRate(uint8 _rate) constant returns (uint16) {\n        return SRate[_rate];\n    }\n\n    function get_dRate(uint8 _rate) constant returns (uint16) {\n        return DRate[_rate];\n    }\n\n\n}\n\ncontract BilateralTrading is mortal{\n    //Account Details Callback function\n    OliDetail origin;\n    function setOliOrigin(address addr) { origin = OliDetail(addr); }\n    //Earn OliCoins\n    OliCoin coin;\n    function setOliCoin(address addr) { coin = OliCoin(addr); }\n    // Set to true at the end, disallows any change\n    //gridFee\n    DynamicGridFee dgfee;\n    function setDynamicGridFee(address addr) { dgfee = DynamicGridFee(addr); }\n\n    struct Details {\n        uint16 amount;\n        uint8 minMaxRate;\n        uint32 contractPeriod; //in seconds\n        uint32 biddingTime;\n        uint32 currentTime;\n        address higestBidder;\n    }\n    //Mapping Available Stock\n    mapping (address => Details) availStock;\n    //Event fired on new available Stock\n    event NewStock(address saccount, uint16 samount, uint8 smrate, uint32 speriod, uint32 sbiddingTime);\n    //Event fired on inceasing bid\n    event NewStockBid(address baccount, uint8 bmrate);\n    //Event fired on Bilateral Trade\n    event BiTrade(address bprod, address bcons, uint16 bamount, uint8 brate);\n    \n    modifier validRequirement(uint16 oliAmount) {\n        if (oliAmount > origin.get_oliPeakLoad(msg.sender,0))\n            throw;\n        _;\n    }\n    //Registeration of Bilateral Stock\n    function regStock (uint16 _amount, uint8 _rate, uint32 _period, uint32 _btime) validRequirement(_amount) {\n        availStock[msg.sender] = Details(_amount, _rate, (uint32(now)+_period), _btime, uint32(now), msg.sender);\n        NewStock(msg.sender, _amount, _rate, (uint32(now)+_period), _btime);\n    }\n    function stockBidding(address _stock, uint8 _rate) {\n        require(origin.get_oliTrafoid(_stock) == (origin.get_oliTrafoid(msg.sender)));\n        require(now <= (availStock[_stock].currentTime + availStock[_stock].biddingTime));\n        if (((origin.get_oliType(_stock)>=0)&&(origin.get_oliType(_stock)<=5))) {\n            require(_rate > availStock[_stock].minMaxRate);\n            availStock[_stock].minMaxRate = _rate;\n            availStock[_stock].higestBidder = msg.sender;\n            NewStockBid(_stock, _rate);\n        }\n        if (((origin.get_oliType(_stock)>=6)&&(origin.get_oliType(_stock)<=7))) {\n            require(_rate < availStock[_stock].minMaxRate);\n            availStock[_stock].minMaxRate = _rate;\n            availStock[_stock].higestBidder = msg.sender;\n            NewStockBid(_stock, _rate);\n        }\n    }\n    \n    function biTrade() {\n        require(availStock[msg.sender].amount > 0);\n        require(uint32(now) <= (availStock[msg.sender].contractPeriod));\n        BiTrade(msg.sender,availStock[msg.sender].higestBidder,availStock[msg.sender].amount,availStock[msg.sender].minMaxRate);\n        //producer coins\n        coin.set_OliCoinBalance(msg.sender, int32(availStock[msg.sender].amount*(availStock[msg.sender].minMaxRate-dgfee.get_dGFee(msg.sender))));\n        //consumer coins\n        coin.set_OliCoinBalance(availStock[msg.sender].higestBidder, -int32(availStock[msg.sender].amount*(availStock[msg.sender].minMaxRate+dgfee.get_dGFee(msg.sender))));\n        //GSO reward\n        coin.set_OliCoinBalance(origin.get_gsoAddr(origin.get_oliTrafoid(msg.sender)), int32(2*dgfee.get_dGFee(msg.sender)*availStock[msg.sender].amount));\n\n    }\n    function get_stockBidder(address _stock) constant returns (address) {\n        return availStock[_stock].higestBidder;\n    }\n    function get_stockAmount(address _stock) constant returns (uint16) {\n        return availStock[_stock].amount;\n    }\n    function get_stockRate(address _stock) constant returns (uint8) {\n        return availStock[_stock].minMaxRate;\n    }\n}\n\ncontract DynamicGridFee is mortal{\n    //Account Details Callback function\n    OliDetail origin;\n    function setOliOrigin(address addr) { origin = OliDetail(addr); }\n    \n    //should have floor and ceiling grid fee and also basd on percentage loading.\n    //local grid fee based on ckt its loading.\n    //transmission grid fee based on trafo loading.\n    \n    //cktload\n    uint8 cktLoad;\n    \n    //trafoload\n    mapping (uint32 => uint8) trafoLoad;\n    \n    //gridFee\n    mapping (address => mapping(uint8 => uint8)) gridFee; //address:GSO | index-> 0:min trafoload Fee; 1:max trafoload Fee; 2:min cktload Fee; 3:max cktload Fee; 4:tFee 5:dFee\n\n    mapping (uint32 => mapping(uint8=>int16)) cktamount; //trafoid -> ckt(+:prod;-:cons)\n\n    mapping (uint32 => int16) trafoamount; //(+:prod;-:cons)\n\n    //Set Min/Max Grid Fee\n    function set_minmaxgfee(address _address, uint8[] _fee) onlyowner {\n        for(var a=0;a<_fee.length;a++){\n            gridFee[_address][a] = _fee[a];\n        }\n    }\n    function set_cktcamount(address _addr, uint16 _amount) { \n        cktamount[origin.get_oliTrafoid(_addr)][origin.get_oliCkt(_addr)] += int16(_amount);\n    }\n    function set_cktramount(address _addr, uint64 _amount) {\n        cktamount[origin.get_oliTrafoid(_addr)][origin.get_oliCkt(_addr)] -= int16(_amount);\n    }\n    function set_dgridFee(uint32 _tid) {\n        for(var b=0; b<origin.get_oliCkt(origin.get_gsoAddr(_tid)); b++) {\n            //cktLoad = uint8(((uint16(cktamount[_tid][b]))*100)/origin.get_oliPeakLoad(origin.get_gsoAddr(_tid), (b+1)));\n            if (cktamount[_tid][b]<=3500){\n                gridFee[origin.get_gsoAddr(_tid)][b+5] = 1;\n            }\n            if ((cktamount[_tid][b]>3500) && (cktamount[_tid][b]<9000) ) {\n                gridFee[origin.get_gsoAddr(_tid)][b+5] = 2;\n            }\n            if (cktamount[_tid][b]>=9000) {\n                gridFee[origin.get_gsoAddr(_tid)][b+5] = 3;\n            }\n            cktamount[_tid][b] = 0;\n        }\n    }\n    function set_trafocamount(address _addr, uint16 _amount){\n        trafoamount[origin.get_oliTrafoid(_addr)] += int16(_amount);\n    }\n    function set_traforamount(address _addr, uint16 _amount){\n        trafoamount[origin.get_oliTrafoid(_addr)] -= int16(_amount);\n    }\n    function set_tgridFee(uint32 _tid) {\n        trafoLoad[_tid] = uint8(( uint16(trafoamount[_tid]) * uint16(100) ) / get_trafoPeakLoad(_tid) );\n        if(trafoamount[_tid] <=1750){\n            gridFee[origin.get_gsoAddr(_tid)][4] = 4;\n        }\n        if( (trafoamount[_tid] > 1750) && (trafoamount[_tid] < 4500) ){\n            gridFee[origin.get_gsoAddr(_tid)][4] = 5;\n        }\n        if(trafoamount[_tid] >= 4500){\n            gridFee[origin.get_gsoAddr(_tid)][4] = 6;\n        }\n        trafoamount[_tid] = 0;\n\n/*\n        if(trafoLoad[_tid] <=35){\n            gridFee[origin.get_gsoAddr(_tid)][4] = 4;\n        }\n        if( (trafoLoad[_tid] > 35) && (trafoLoad[_tid] < 90) ){\n            gridFee[origin.get_gsoAddr(_tid)][4] = 5;\n        }\n        if(trafoLoad[_tid] >= 90){\n            gridFee[origin.get_gsoAddr(_tid)][4] = 6;\n        }\n        trafoamount[_tid] = 0;\n*/\n    }\n    function get_trafoPeakLoad(uint32 _tid) constant returns(uint16) {\n        return origin.get_oliPeakLoad(origin.get_gsoAddr(_tid),0);\n    }\n    function get_trafoAmount(address _addr) constant returns(int16) {\n        return trafoamount[origin.get_oliTrafoid(_addr)];\n    }\n    function get_trafoLoad(uint32 _tid) constant returns(uint8) {\n        return trafoLoad[_tid];\n    }\n\n    function get_dGFee(address _addr) constant returns (uint8) {\n        return gridFee[origin.get_gsoAddr(origin.get_oliTrafoid(_addr))][origin.get_oliCkt(_addr)+5];\n    }\n    function get_tGFee(address _addr) constant returns (uint8) {\n        return gridFee[origin.get_gsoAddr(origin.get_oliTrafoid(_addr))][4];\n    }\n    function get_gridFee(uint32 _tid, uint8 _index) constant returns (uint8) {\n            return gridFee[origin.get_gsoAddr(_tid)][_index];\n    }\n    function get_cktAmount(uint32 _tid, uint8 _index) constant returns (int16) {\n            return cktamount[_tid][_index];\n    }\n    \n}\n",
  "sourcePath": "D:\\02_OLI\\Projects\\truffle_auto\\contracts\\OliEnergyTrading.sol",
  "compiler": {
    "name": "solc",
    "version": "0.4.19+commit.c4cbbb05.Emscripten.clang"
  },
  "schemaVersion": "2.0.0",
  "updatedAt": "2018-05-03T19:01:26.372Z"
}