{
  "contractName": "OliOrigin",
  "abi": [
    {
      "constant": false,
      "inputs": [],
      "name": "kill",
      "outputs": [],
      "payable": false,
      "stateMutability": "nonpayable",
      "type": "function"
    },
    {
      "anonymous": false,
      "inputs": [
        {
          "indexed": false,
          "name": "paymentAddress",
          "type": "address"
        },
        {
          "indexed": false,
          "name": "latOfLocation",
          "type": "uint32"
        },
        {
          "indexed": false,
          "name": "longOfLocation",
          "type": "uint32"
        }
      ],
      "name": "newAddedOli",
      "type": "event"
    },
    {
      "constant": false,
      "inputs": [
        {
          "name": "oli",
          "type": "address"
        },
        {
          "name": "lat",
          "type": "uint32"
        },
        {
          "name": "long",
          "type": "uint32"
        },
        {
          "name": "trafo",
          "type": "uint32"
        },
        {
          "name": "ckt",
          "type": "uint8"
        },
        {
          "name": "typex",
          "type": "uint8"
        },
        {
          "name": "pload",
          "type": "uint16[]"
        }
      ],
      "name": "addOli",
      "outputs": [],
      "payable": false,
      "stateMutability": "nonpayable",
      "type": "function"
    },
    {
      "constant": true,
      "inputs": [
        {
          "name": "_account",
          "type": "address"
        }
      ],
      "name": "get_oliType",
      "outputs": [
        {
          "name": "",
          "type": "uint8"
        }
      ],
      "payable": false,
      "stateMutability": "view",
      "type": "function"
    },
    {
      "constant": true,
      "inputs": [
        {
          "name": "_account",
          "type": "address"
        },
        {
          "name": "_index",
          "type": "uint8"
        }
      ],
      "name": "get_oliPeakLoad",
      "outputs": [
        {
          "name": "",
          "type": "uint16"
        }
      ],
      "payable": false,
      "stateMutability": "view",
      "type": "function"
    },
    {
      "constant": true,
      "inputs": [
        {
          "name": "_account",
          "type": "address"
        }
      ],
      "name": "get_oliCkt",
      "outputs": [
        {
          "name": "",
          "type": "uint8"
        }
      ],
      "payable": false,
      "stateMutability": "view",
      "type": "function"
    },
    {
      "constant": true,
      "inputs": [
        {
          "name": "_account",
          "type": "address"
        }
      ],
      "name": "get_oliTrafoid",
      "outputs": [
        {
          "name": "",
          "type": "uint32"
        }
      ],
      "payable": false,
      "stateMutability": "view",
      "type": "function"
    },
    {
      "constant": true,
      "inputs": [
        {
          "name": "_tid",
          "type": "uint32"
        }
      ],
      "name": "get_gsoAddr",
      "outputs": [
        {
          "name": "",
          "type": "address"
        }
      ],
      "payable": false,
      "stateMutability": "view",
      "type": "function"
    }
  ],
  "bytecode": "0x6060604052336000806101000a81548173ffffffffffffffffffffffffffffffffffffffff021916908373ffffffffffffffffffffffffffffffffffffffff160217905550610944806100536000396000f300606060405260043610610083576000357c0100000000000000000000000000000000000000000000000000000000900463ffffffff1680632fe99b9b146100885780633befa275146100db57806341c0e1b51461012e57806362f6b0ec146101435780638ac8916c1461019c578063b36673af14610205578063ffbe620d14610266575b600080fd5b341561009357600080fd5b6100bf600480803573ffffffffffffffffffffffffffffffffffffffff16906020019091905050610324565b604051808260ff1660ff16815260200191505060405180910390f35b34156100e657600080fd5b610112600480803573ffffffffffffffffffffffffffffffffffffffff1690602001909190505061037d565b604051808260ff1660ff16815260200191505060405180910390f35b341561013957600080fd5b6101416103d6565b005b341561014e57600080fd5b61017a600480803573ffffffffffffffffffffffffffffffffffffffff16906020019091905050610467565b604051808263ffffffff1663ffffffff16815260200191505060405180910390f35b34156101a757600080fd5b6101c3600480803563ffffffff169060200190919050506104c3565b604051808273ffffffffffffffffffffffffffffffffffffffff1673ffffffffffffffffffffffffffffffffffffffff16815260200191505060405180910390f35b341561021057600080fd5b610248600480803573ffffffffffffffffffffffffffffffffffffffff1690602001909190803560ff1690602001909190505061050c565b604051808261ffff1661ffff16815260200191505060405180910390f35b341561027157600080fd5b610322600480803573ffffffffffffffffffffffffffffffffffffffff1690602001909190803563ffffffff1690602001909190803563ffffffff1690602001909190803563ffffffff1690602001909190803560ff1690602001909190803560ff169060200190919080359060200190820180359060200190808060200260200160405190810160405280939291908181526020018383602002808284378201915050505050509190505061058c565b005b6000600160008373ffffffffffffffffffffffffffffffffffffffff1673ffffffffffffffffffffffffffffffffffffffff168152602001908152602001600020600001600d9054906101000a900460ff169050919050565b6000600160008373ffffffffffffffffffffffffffffffffffffffff1673ffffffffffffffffffffffffffffffffffffffff168152602001908152602001600020600001600c9054906101000a900460ff169050919050565b6000809054906101000a900473ffffffffffffffffffffffffffffffffffffffff1673ffffffffffffffffffffffffffffffffffffffff163373ffffffffffffffffffffffffffffffffffffffff161415610465576000809054906101000a900473ffffffffffffffffffffffffffffffffffffffff1673ffffffffffffffffffffffffffffffffffffffff16ff5b565b6000600160008373ffffffffffffffffffffffffffffffffffffffff1673ffffffffffffffffffffffffffffffffffffffff16815260200190815260200160002060000160089054906101000a900463ffffffff169050919050565b6000600260008363ffffffff1663ffffffff16815260200190815260200160002060009054906101000a900473ffffffffffffffffffffffffffffffffffffffff169050919050565b6000600160008473ffffffffffffffffffffffffffffffffffffffff1673ffffffffffffffffffffffffffffffffffffffff1681526020019081526020016000206001018260ff1681548110151561056057fe5b90600052602060002090601091828204019190066002029054906101000a900461ffff16905092915050565b6000809054906101000a900473ffffffffffffffffffffffffffffffffffffffff1673ffffffffffffffffffffffffffffffffffffffff163373ffffffffffffffffffffffffffffffffffffffff1614156108345760c0604051908101604052808763ffffffff1681526020018663ffffffff1681526020018563ffffffff1681526020018460ff1681526020018360ff16815260200182815250600160008973ffffffffffffffffffffffffffffffffffffffff1673ffffffffffffffffffffffffffffffffffffffff16815260200190815260200160002060008201518160000160006101000a81548163ffffffff021916908363ffffffff16021790555060208201518160000160046101000a81548163ffffffff021916908363ffffffff16021790555060408201518160000160086101000a81548163ffffffff021916908363ffffffff160217905550606082015181600001600c6101000a81548160ff021916908360ff160217905550608082015181600001600d6101000a81548160ff021916908360ff16021790555060a082015181600101908051906020019061073992919061083d565b509050507fe5d143938ef26b06189073aced7863c420b65d073340f7b6d66496725ec56ff5878787604051808473ffffffffffffffffffffffffffffffffffffffff1673ffffffffffffffffffffffffffffffffffffffff1681526020018363ffffffff1663ffffffff1681526020018263ffffffff1663ffffffff168152602001935050505060405180910390a160088260ff1614156108335786600260008663ffffffff1663ffffffff16815260200190815260200160002060006101000a81548173ffffffffffffffffffffffffffffffffffffffff021916908373ffffffffffffffffffffffffffffffffffffffff1602179055505b5b50505050505050565b82805482825590600052602060002090600f016010900481019282156108d65791602002820160005b838211156108a657835183826101000a81548161ffff021916908361ffff1602179055509260200192600201602081600101049283019260010302610866565b80156108d45782816101000a81549061ffff02191690556002016020816001010492830192600103026108a6565b505b5090506108e391906108e7565b5090565b61091591905b8082111561091157600081816101000a81549061ffff0219169055506001016108ed565b5090565b905600a165627a7a72305820f6f8f46ee1ba0c9dfc005b35180bd2dbecb68e791dd8394adb92d6006d348d890029",
  "source": "pragma solidity ^0.4.11;\n\nimport \"./mortal.sol\";\n\ncontract OliOrigin is mortal{\n  \n    mapping (address => Details) OliAddressMapping;\n    mapping (uint32 => address) GSO;\n\n\n    event newAddedOli(address paymentAddress, uint32 latOfLocation, uint32 longOfLocation);\n    \n    struct Details {\n        uint32 latitude;\n        uint32 longitude;\n        uint32 trafoid;\n        uint8 ckt; //In case of Prosumers' ckt rep. --> 1st ckt:0; 2nd ckt:1; In case of Trafo 4branches --> 4 ckt\n        uint8 _type; //0:PV, 1:Wind, 2:CCP, 3:CHP, 4:Coal, 5:battery+, 6: battery-, 7:Consumer, 8:DNO\n        uint16[] _pload; // if _type=8 then index:0->trafoload\n    }\n\n    function addOli(address oli, uint32 lat, uint32 long, uint32 trafo, uint8 ckt, uint8 typex, uint16[] pload) onlyowner{\n        OliAddressMapping[oli] = Details(lat, long, trafo, ckt, typex, pload);\n        newAddedOli(oli, lat, long);\n        if (typex==8){\n            GSO[trafo]=oli;\n        }\n    }\n\n    //Oli types passing to Daughter Auction\n    function get_oliType(address _account) constant returns (uint8) {\n        return OliAddressMapping[_account]._type;\n    }\n    //Oli amount passing to Daughter Auction\n    function get_oliPeakLoad(address _account, uint8 _index) constant returns (uint16) {\n        return OliAddressMapping[_account]._pload[_index];\n    }\n\n    function get_oliCkt(address _account) constant returns (uint8) {\n        return OliAddressMapping[_account].ckt;\n    }\n\n    function get_oliTrafoid(address _account) constant returns (uint32) {\n        return OliAddressMapping[_account].trafoid;\n    }\n    function get_gsoAddr(uint32 _tid) constant returns (address) {\n        return GSO[_tid];\n    }\n    \n}\n",
  "sourcePath": "D:\\02_OLI\\Projects\\truffle_auto\\contracts\\OliOrigin.sol",
  "compiler": {
    "name": "solc",
    "version": "0.4.19+commit.c4cbbb05.Emscripten.clang"
  },
  "schemaVersion": "2.0.0",
  "updatedAt": "2018-05-03T19:01:26.345Z"
}