{
  "contractName": "ParentAuction",
  "abi": [
    {
      "constant": false,
      "inputs": [],
      "name": "kill",
      "outputs": [],
      "payable": false,
      "stateMutability": "nonpayable",
      "type": "function"
    },
    {
      "constant": true,
      "inputs": [],
      "name": "maxRate",
      "outputs": [
        {
          "name": "",
          "type": "uint8"
        }
      ],
      "payable": false,
      "stateMutability": "view",
      "type": "function"
    },
    {
      "anonymous": false,
      "inputs": [
        {
          "indexed": true,
          "name": "gaddr",
          "type": "address"
        },
        {
          "indexed": false,
          "name": "grate",
          "type": "uint8"
        },
        {
          "indexed": false,
          "name": "gamount",
          "type": "uint16"
        }
      ],
      "name": "NewGenBid",
      "type": "event"
    },
    {
      "anonymous": false,
      "inputs": [
        {
          "indexed": true,
          "name": "caddr",
          "type": "address"
        },
        {
          "indexed": false,
          "name": "crate",
          "type": "uint8"
        },
        {
          "indexed": false,
          "name": "camount",
          "type": "uint16"
        }
      ],
      "name": "NewConBid",
      "type": "event"
    },
    {
      "anonymous": false,
      "inputs": [
        {
          "indexed": false,
          "name": "cbid",
          "type": "uint8"
        }
      ],
      "name": "NewMcp",
      "type": "event"
    },
    {
      "constant": false,
      "inputs": [
        {
          "name": "addr",
          "type": "address"
        }
      ],
      "name": "setOliOrigin",
      "outputs": [],
      "payable": false,
      "stateMutability": "nonpayable",
      "type": "function"
    },
    {
      "constant": false,
      "inputs": [
        {
          "name": "addr",
          "type": "address"
        }
      ],
      "name": "setOliCoin",
      "outputs": [],
      "payable": false,
      "stateMutability": "nonpayable",
      "type": "function"
    },
    {
      "constant": false,
      "inputs": [
        {
          "name": "addr",
          "type": "address"
        }
      ],
      "name": "setDynamicGridFee",
      "outputs": [],
      "payable": false,
      "stateMutability": "nonpayable",
      "type": "function"
    },
    {
      "constant": false,
      "inputs": [
        {
          "name": "_tid",
          "type": "uint32"
        },
        {
          "name": "_tf",
          "type": "bool"
        }
      ],
      "name": "set_ContractAddress",
      "outputs": [],
      "payable": false,
      "stateMutability": "nonpayable",
      "type": "function"
    },
    {
      "constant": false,
      "inputs": [
        {
          "name": "_amount",
          "type": "uint16"
        },
        {
          "name": "_rate",
          "type": "uint8"
        }
      ],
      "name": "bid",
      "outputs": [],
      "payable": false,
      "stateMutability": "nonpayable",
      "type": "function"
    },
    {
      "constant": false,
      "inputs": [],
      "name": "breakEven",
      "outputs": [],
      "payable": false,
      "stateMutability": "nonpayable",
      "type": "function"
    },
    {
      "constant": false,
      "inputs": [],
      "name": "resett",
      "outputs": [],
      "payable": false,
      "stateMutability": "nonpayable",
      "type": "function"
    },
    {
      "constant": true,
      "inputs": [],
      "name": "get_producer",
      "outputs": [
        {
          "name": "",
          "type": "address[]"
        }
      ],
      "payable": false,
      "stateMutability": "view",
      "type": "function"
    },
    {
      "constant": true,
      "inputs": [],
      "name": "get_consumer",
      "outputs": [
        {
          "name": "",
          "type": "address[]"
        }
      ],
      "payable": false,
      "stateMutability": "view",
      "type": "function"
    },
    {
      "constant": true,
      "inputs": [
        {
          "name": "_rate",
          "type": "uint8"
        }
      ],
      "name": "get_sRate",
      "outputs": [
        {
          "name": "",
          "type": "uint16"
        }
      ],
      "payable": false,
      "stateMutability": "view",
      "type": "function"
    },
    {
      "constant": true,
      "inputs": [
        {
          "name": "_rate",
          "type": "uint8"
        }
      ],
      "name": "get_dRate",
      "outputs": [
        {
          "name": "",
          "type": "uint16"
        }
      ],
      "payable": false,
      "stateMutability": "view",
      "type": "function"
    }
  ],
  "bytecode": "0x6060604052600a600b60016101000a81548160ff021916908360ff160217905550336000806101000a81548173ffffffffffffffffffffffffffffffffffffffff021916908373ffffffffffffffffffffffffffffffffffffffff160217905550612ba28061006f6000396000f3006060604052600436106100c5576000357c0100000000000000000000000000000000000000000000000000000000900463ffffffff1680630c8cfd49146100ca578063103fecb7146100fe5780631d0556c714610137578063292edb491461016a5780632f761fb3146101a357806341c0e1b5146101dc5780634944aec5146101f15780635c53284d14610206578063677d18a914610270578063908ab8e0146102b25780639cac22d91461031c578063ece1d6e51461035e578063f7f498401461038d575b600080fd5b34156100d557600080fd5b6100fc600480803563ffffffff1690602001909190803515159060200190919050506103a2565b005b341561010957600080fd5b610135600480803573ffffffffffffffffffffffffffffffffffffffff16906020019091905050610433565b005b341561014257600080fd5b610168600480803561ffff1690602001909190803560ff16906020019091905050610477565b005b341561017557600080fd5b6101a1600480803573ffffffffffffffffffffffffffffffffffffffff16906020019091905050610ed2565b005b34156101ae57600080fd5b6101da600480803573ffffffffffffffffffffffffffffffffffffffff16906020019091905050610f16565b005b34156101e757600080fd5b6101ef610f5a565b005b34156101fc57600080fd5b610204610feb565b005b341561021157600080fd5b610219611237565b6040518080602001828103825283818151815260200191508051906020019060200280838360005b8381101561025c578082015181840152602081019050610241565b505050509050019250505060405180910390f35b341561027b57600080fd5b610294600480803560ff169060200190919050506112cb565b604051808261ffff1661ffff16815260200191505060405180910390f35b34156102bd57600080fd5b6102c56112fc565b6040518080602001828103825283818151815260200191508051906020019060200280838360005b838110156103085780820151818401526020810190506102ed565b505050509050019250505060405180910390f35b341561032757600080fd5b610340600480803560ff16906020019091905050611390565b604051808261ffff1661ffff16815260200191505060405180910390f35b341561036957600080fd5b6103716113c1565b604051808260ff1660ff16815260200191505060405180910390f35b341561039857600080fd5b6103a06113d4565b005b6000809054906101000a900473ffffffffffffffffffffffffffffffffffffffff1673ffffffffffffffffffffffffffffffffffffffff163373ffffffffffffffffffffffffffffffffffffffff16141561042f5780600460008463ffffffff1663ffffffff16815260200190815260200160002060006101000a81548160ff0219169083151502179055505b5050565b80600160006101000a81548173ffffffffffffffffffffffffffffffffffffffff021916908373ffffffffffffffffffffffffffffffffffffffff16021790555050565b600060ff16600160009054906101000a900473ffffffffffffffffffffffffffffffffffffffff1673ffffffffffffffffffffffffffffffffffffffff16632fe99b9b336000604051602001526040518263ffffffff167c0100000000000000000000000000000000000000000000000000000000028152600401808273ffffffffffffffffffffffffffffffffffffffff1673ffffffffffffffffffffffffffffffffffffffff168152602001915050602060405180830381600087803b151561054157600080fd5b6102c65a03f1151561055257600080fd5b5050506040518051905060ff16101580156106535750600560ff16600160009054906101000a900473ffffffffffffffffffffffffffffffffffffffff1673ffffffffffffffffffffffffffffffffffffffff16632fe99b9b336000604051602001526040518263ffffffff167c0100000000000000000000000000000000000000000000000000000000028152600401808273ffffffffffffffffffffffffffffffffffffffff1673ffffffffffffffffffffffffffffffffffffffff168152602001915050602060405180830381600087803b151561063257600080fd5b6102c65a03f1151561064357600080fd5b5050506040518051905060ff1611155b80156106675750600061ffff168261ffff16115b801561077b575060046000600160009054906101000a900473ffffffffffffffffffffffffffffffffffffffff1673ffffffffffffffffffffffffffffffffffffffff166362f6b0ec326000604051602001526040518263ffffffff167c0100000000000000000000000000000000000000000000000000000000028152600401808273ffffffffffffffffffffffffffffffffffffffff1673ffffffffffffffffffffffffffffffffffffffff168152602001915050602060405180830381600087803b151561073757600080fd5b6102c65a03f1151561074857600080fd5b5050506040518051905063ffffffff1663ffffffff16815260200190815260200160002060009054906101000a900460ff165b156109a35760408051908101604052808260ff1681526020018361ffff16815250600760003373ffffffffffffffffffffffffffffffffffffffff1673ffffffffffffffffffffffffffffffffffffffff16815260200190815260200160002060008201518160000160006101000a81548160ff021916908360ff16021790555060208201518160000160016101000a81548161ffff021916908361ffff160217905550905050600b60009054906101000a900460ff1660ff168160ff16111561085b5780600b60006101000a81548160ff021916908360ff1602179055505b600b60019054906101000a900460ff1660ff168160ff1610156108945780600b60016101000a81548160ff021916908360ff1602179055505b81600960008360ff1660ff16815260200190815260200160002060008282829054906101000a900461ffff160192506101000a81548161ffff021916908361ffff1602179055503373ffffffffffffffffffffffffffffffffffffffff167fdbbdb6bcd2234cd5661449d8e0e752d726e5b634bb145b9b5026a8d6481d73b58284604051808360ff1660ff1681526020018261ffff1661ffff1681526020019250505060405180910390a2600580548060010182816109539190612af0565b9160005260206000209001600033909190916101000a81548173ffffffffffffffffffffffffffffffffffffffff021916908373ffffffffffffffffffffffffffffffffffffffff160217905550505b600560ff16600160009054906101000a900473ffffffffffffffffffffffffffffffffffffffff1673ffffffffffffffffffffffffffffffffffffffff16632fe99b9b336000604051602001526040518263ffffffff167c0100000000000000000000000000000000000000000000000000000000028152600401808273ffffffffffffffffffffffffffffffffffffffff1673ffffffffffffffffffffffffffffffffffffffff168152602001915050602060405180830381600087803b1515610a6d57600080fd5b6102c65a03f11515610a7e57600080fd5b5050506040518051905060ff16118015610b7e5750600760ff16600160009054906101000a900473ffffffffffffffffffffffffffffffffffffffff1673ffffffffffffffffffffffffffffffffffffffff16632fe99b9b336000604051602001526040518263ffffffff167c0100000000000000000000000000000000000000000000000000000000028152600401808273ffffffffffffffffffffffffffffffffffffffff1673ffffffffffffffffffffffffffffffffffffffff168152602001915050602060405180830381600087803b1515610b5d57600080fd5b6102c65a03f11515610b6e57600080fd5b5050506040518051905060ff1611155b8015610b925750600061ffff168261ffff16115b8015610ca6575060046000600160009054906101000a900473ffffffffffffffffffffffffffffffffffffffff1673ffffffffffffffffffffffffffffffffffffffff166362f6b0ec326000604051602001526040518263ffffffff167c0100000000000000000000000000000000000000000000000000000000028152600401808273ffffffffffffffffffffffffffffffffffffffff1673ffffffffffffffffffffffffffffffffffffffff168152602001915050602060405180830381600087803b1515610c6257600080fd5b6102c65a03f11515610c7357600080fd5b5050506040518051905063ffffffff1663ffffffff16815260200190815260200160002060009054906101000a900460ff165b15610ece5760408051908101604052808260ff1681526020018361ffff16815250600860003373ffffffffffffffffffffffffffffffffffffffff1673ffffffffffffffffffffffffffffffffffffffff16815260200190815260200160002060008201518160000160006101000a81548160ff021916908360ff16021790555060208201518160000160016101000a81548161ffff021916908361ffff160217905550905050600b60009054906101000a900460ff1660ff168160ff161115610d865780600b60006101000a81548160ff021916908360ff1602179055505b600b60019054906101000a900460ff1660ff168160ff161015610dbf5780600b60016101000a81548160ff021916908360ff1602179055505b81600a60008360ff1660ff16815260200190815260200160002060008282829054906101000a900461ffff160192506101000a81548161ffff021916908361ffff1602179055503373ffffffffffffffffffffffffffffffffffffffff167f47eee071b05295625bf22da8784f54911a1ec12d81d5b6a6f25de72c60580ab28284604051808360ff1660ff1681526020018261ffff1661ffff1681526020019250505060405180910390a260068054806001018281610e7e9190612af0565b9160005260206000209001600033909190916101000a81548173ffffffffffffffffffffffffffffffffffffffff021916908373ffffffffffffffffffffffffffffffffffffffff160217905550505b5050565b80600260006101000a81548173ffffffffffffffffffffffffffffffffffffffff021916908373ffffffffffffffffffffffffffffffffffffffff16021790555050565b80600360006101000a81548173ffffffffffffffffffffffffffffffffffffffff021916908373ffffffffffffffffffffffffffffffffffffffff16021790555050565b6000809054906101000a900473ffffffffffffffffffffffffffffffffffffffff1673ffffffffffffffffffffffffffffffffffffffff163373ffffffffffffffffffffffffffffffffffffffff161415610fe9576000809054906101000a900473ffffffffffffffffffffffffffffffffffffffff1673ffffffffffffffffffffffffffffffffffffffff16ff5b565b600060056000610ffb9190612b1c565b600660006110099190612b1c565b600090505b600b60009054906101000a900460ff1660ff168160ff1610156110a2576000600960008360ff1660ff16815260200190815260200160002060006101000a81548161ffff021916908361ffff1602179055506000600a60008360ff1660ff16815260200190815260200160002060006101000a81548161ffff021916908361ffff160217905550808060010191505061100e565b600a600b60006101000a81548160ff021916908360ff160217905550600a600b60016101000a81548160ff021916908360ff160217905550600360009054906101000a900473ffffffffffffffffffffffffffffffffffffffff1673ffffffffffffffffffffffffffffffffffffffff166357b19276620107306040518263ffffffff167c0100000000000000000000000000000000000000000000000000000000028152600401808263ffffffff168152602001915050600060405180830381600087803b151561117357600080fd5b6102c65a03f1151561118457600080fd5b505050600360009054906101000a900473ffffffffffffffffffffffffffffffffffffffff1673ffffffffffffffffffffffffffffffffffffffff166357b19276620107316040518263ffffffff167c0100000000000000000000000000000000000000000000000000000000028152600401808263ffffffff168152602001915050600060405180830381600087803b151561122057600080fd5b6102c65a03f1151561123157600080fd5b50505050565b61123f612b3d565b60058054806020026020016040519081016040528092919081815260200182805480156112c157602002820191906000526020600020905b8160009054906101000a900473ffffffffffffffffffffffffffffffffffffffff1673ffffffffffffffffffffffffffffffffffffffff1681526020019060010190808311611277575b5050505050905090565b6000600960008360ff1660ff16815260200190815260200160002060009054906101000a900461ffff169050919050565b611304612b3d565b600680548060200260200160405190810160405280929190818152602001828054801561138657602002820191906000526020600020905b8160009054906101000a900473ffffffffffffffffffffffffffffffffffffffff1673ffffffffffffffffffffffffffffffffffffffff168152602001906001019080831161133c575b5050505050905090565b6000600a60008360ff1660ff16815260200190815260200160002060009054906101000a900461ffff169050919050565b600b60009054906101000a900460ff1681565b6000806000806000600b60009054906101000a900460ff169450600193505b600b60009054906101000a900460ff1660ff168460ff1611151561150957600960006001860360ff1660ff16815260200190815260200160002060009054906101000a900461ffff16600960008660ff1660ff16815260200190815260200160002060008282829054906101000a900461ffff160192506101000a81548161ffff021916908361ffff160217905550600a60008660ff1660ff16815260200190815260200160002060009054906101000a900461ffff16600a60006001880360ff1660ff16815260200190815260200160002060008282829054906101000a900461ffff160192506101000a81548161ffff021916908361ffff16021790555084806001900395505083806001019450506113f3565b600092505b600b60009054906101000a900460ff1660ff168360ff16111515612ae957600a60008460ff1660ff16815260200190815260200160002060009054906101000a900461ffff1661ffff16600960008560ff1660ff16815260200190815260200160002060009054906101000a900461ffff1661ffff16101515612adc57600960006001850360ff1660ff16815260200190815260200160002060009054906101000a900461ffff1661ffff16600a60008560ff1660ff16815260200190815260200160002060009054906101000a900461ffff1661ffff16111561162e577ff0d05aa95794532a2a1c0354b270e6bcfe414b95452ceb74e0df8b38e7ac0c2e83604051808260ff1660ff16815260200191505060405180910390a1611678565b7ff0d05aa95794532a2a1c0354b270e6bcfe414b95452ceb74e0df8b38e7ac0c2e60018403604051808260ff1660ff16815260200191505060405180910390a18280600190039350505b600091505b6005805490508260ff1610156120a6578260ff166007600060058560ff168154811015156116a757fe5b906000526020600020900160009054906101000a900473ffffffffffffffffffffffffffffffffffffffff1673ffffffffffffffffffffffffffffffffffffffff1673ffffffffffffffffffffffffffffffffffffffff16815260200190815260200160002060000160009054906101000a900460ff1660ff1611151561209957600260009054906101000a900473ffffffffffffffffffffffffffffffffffffffff1673ffffffffffffffffffffffffffffffffffffffff1663c53b6f4460058460ff1681548110151561177857fe5b906000526020600020900160009054906101000a900473ffffffffffffffffffffffffffffffffffffffff166007600060058760ff168154811015156117ba57fe5b906000526020600020900160009054906101000a900473ffffffffffffffffffffffffffffffffffffffff1673ffffffffffffffffffffffffffffffffffffffff1673ffffffffffffffffffffffffffffffffffffffff16815260200190815260200160002060000160019054906101000a900461ffff16600360009054906101000a900473ffffffffffffffffffffffffffffffffffffffff1673ffffffffffffffffffffffffffffffffffffffff1663c3d9261b60058860ff1681548110151561188257fe5b906000526020600020900160009054906101000a900473ffffffffffffffffffffffffffffffffffffffff166000604051602001526040518263ffffffff167c0100000000000000000000000000000000000000000000000000000000028152600401808273ffffffffffffffffffffffffffffffffffffffff1673ffffffffffffffffffffffffffffffffffffffff168152602001915050602060405180830381600087803b151561193457600080fd5b6102c65a03f1151561194557600080fd5b505050604051805190506007600060058960ff1681548110151561196557fe5b906000526020600020900160009054906101000a900473ffffffffffffffffffffffffffffffffffffffff1673ffffffffffffffffffffffffffffffffffffffff1673ffffffffffffffffffffffffffffffffffffffff16815260200190815260200160002060000160009054906101000a900460ff160360ff160261ffff166040518363ffffffff167c0100000000000000000000000000000000000000000000000000000000028152600401808373ffffffffffffffffffffffffffffffffffffffff1673ffffffffffffffffffffffffffffffffffffffff1681526020018260030b60030b815260200192505050600060405180830381600087803b1515611a6f57600080fd5b6102c65a03f11515611a8057600080fd5b505050600260009054906101000a900473ffffffffffffffffffffffffffffffffffffffff1673ffffffffffffffffffffffffffffffffffffffff1663c53b6f44600160009054906101000a900473ffffffffffffffffffffffffffffffffffffffff1673ffffffffffffffffffffffffffffffffffffffff16638ac8916c600160009054906101000a900473ffffffffffffffffffffffffffffffffffffffff1673ffffffffffffffffffffffffffffffffffffffff166362f6b0ec60058860ff16815481101515611b4f57fe5b906000526020600020900160009054906101000a900473ffffffffffffffffffffffffffffffffffffffff166000604051602001526040518263ffffffff167c0100000000000000000000000000000000000000000000000000000000028152600401808273ffffffffffffffffffffffffffffffffffffffff1673ffffffffffffffffffffffffffffffffffffffff168152602001915050602060405180830381600087803b1515611c0157600080fd5b6102c65a03f11515611c1257600080fd5b505050604051805190506000604051602001526040518263ffffffff167c0100000000000000000000000000000000000000000000000000000000028152600401808263ffffffff1663ffffffff168152602001915050602060405180830381600087803b1515611c8257600080fd5b6102c65a03f11515611c9357600080fd5b505050604051805190506007600060058760ff16815481101515611cb357fe5b906000526020600020900160009054906101000a900473ffffffffffffffffffffffffffffffffffffffff1673ffffffffffffffffffffffffffffffffffffffff1673ffffffffffffffffffffffffffffffffffffffff16815260200190815260200160002060000160019054906101000a900461ffff16600360009054906101000a900473ffffffffffffffffffffffffffffffffffffffff1673ffffffffffffffffffffffffffffffffffffffff1663c3d9261b60058860ff16815481101515611d7b57fe5b906000526020600020900160009054906101000a900473ffffffffffffffffffffffffffffffffffffffff166000604051602001526040518263ffffffff167c0100000000000000000000000000000000000000000000000000000000028152600401808273ffffffffffffffffffffffffffffffffffffffff1673ffffffffffffffffffffffffffffffffffffffff168152602001915050602060405180830381600087803b1515611e2d57600080fd5b6102c65a03f11515611e3e57600080fd5b5050506040518051905060ff160261ffff166040518363ffffffff167c0100000000000000000000000000000000000000000000000000000000028152600401808373ffffffffffffffffffffffffffffffffffffffff1673ffffffffffffffffffffffffffffffffffffffff1681526020018260030b60030b815260200192505050600060405180830381600087803b1515611eda57600080fd5b6102c65a03f11515611eeb57600080fd5b505050600360009054906101000a900473ffffffffffffffffffffffffffffffffffffffff1673ffffffffffffffffffffffffffffffffffffffff16630d8ca94260058460ff16815481101515611f3e57fe5b906000526020600020900160009054906101000a900473ffffffffffffffffffffffffffffffffffffffff166007600060058760ff16815481101515611f8057fe5b906000526020600020900160009054906101000a900473ffffffffffffffffffffffffffffffffffffffff1673ffffffffffffffffffffffffffffffffffffffff1673ffffffffffffffffffffffffffffffffffffffff16815260200190815260200160002060000160019054906101000a900461ffff166040518363ffffffff167c0100000000000000000000000000000000000000000000000000000000028152600401808373ffffffffffffffffffffffffffffffffffffffff1673ffffffffffffffffffffffffffffffffffffffff1681526020018261ffff1661ffff16815260200192505050600060405180830381600087803b151561208457600080fd5b6102c65a03f1151561209557600080fd5b5050505b818060010192505061167d565b600090505b6006805490508160ff161015612ad7578260ff166008600060068460ff168154811015156120d557fe5b906000526020600020900160009054906101000a900473ffffffffffffffffffffffffffffffffffffffff1673ffffffffffffffffffffffffffffffffffffffff1673ffffffffffffffffffffffffffffffffffffffff16815260200190815260200160002060000160009054906101000a900460ff1660ff16101515612aca57600260009054906101000a900473ffffffffffffffffffffffffffffffffffffffff1673ffffffffffffffffffffffffffffffffffffffff1663c53b6f4460068360ff168154811015156121a657fe5b906000526020600020900160009054906101000a900473ffffffffffffffffffffffffffffffffffffffff166008600060068660ff168154811015156121e857fe5b906000526020600020900160009054906101000a900473ffffffffffffffffffffffffffffffffffffffff1673ffffffffffffffffffffffffffffffffffffffff1673ffffffffffffffffffffffffffffffffffffffff16815260200190815260200160002060000160019054906101000a900461ffff16600360009054906101000a900473ffffffffffffffffffffffffffffffffffffffff1673ffffffffffffffffffffffffffffffffffffffff1663c3d9261b60068760ff168154811015156122b057fe5b906000526020600020900160009054906101000a900473ffffffffffffffffffffffffffffffffffffffff166000604051602001526040518263ffffffff167c0100000000000000000000000000000000000000000000000000000000028152600401808273ffffffffffffffffffffffffffffffffffffffff1673ffffffffffffffffffffffffffffffffffffffff168152602001915050602060405180830381600087803b151561236257600080fd5b6102c65a03f1151561237357600080fd5b505050604051805190506008600060068860ff1681548110151561239357fe5b906000526020600020900160009054906101000a900473ffffffffffffffffffffffffffffffffffffffff1673ffffffffffffffffffffffffffffffffffffffff1673ffffffffffffffffffffffffffffffffffffffff16815260200190815260200160002060000160009054906101000a900460ff160160ff160261ffff166000036040518363ffffffff167c0100000000000000000000000000000000000000000000000000000000028152600401808373ffffffffffffffffffffffffffffffffffffffff1673ffffffffffffffffffffffffffffffffffffffff1681526020018260030b60030b815260200192505050600060405180830381600087803b15156124a057600080fd5b6102c65a03f115156124b157600080fd5b505050600260009054906101000a900473ffffffffffffffffffffffffffffffffffffffff1673ffffffffffffffffffffffffffffffffffffffff1663c53b6f44600160009054906101000a900473ffffffffffffffffffffffffffffffffffffffff1673ffffffffffffffffffffffffffffffffffffffff16638ac8916c600160009054906101000a900473ffffffffffffffffffffffffffffffffffffffff1673ffffffffffffffffffffffffffffffffffffffff166362f6b0ec60068760ff1681548110151561258057fe5b906000526020600020900160009054906101000a900473ffffffffffffffffffffffffffffffffffffffff166000604051602001526040518263ffffffff167c0100000000000000000000000000000000000000000000000000000000028152600401808273ffffffffffffffffffffffffffffffffffffffff1673ffffffffffffffffffffffffffffffffffffffff168152602001915050602060405180830381600087803b151561263257600080fd5b6102c65a03f1151561264357600080fd5b505050604051805190506000604051602001526040518263ffffffff167c0100000000000000000000000000000000000000000000000000000000028152600401808263ffffffff1663ffffffff168152602001915050602060405180830381600087803b15156126b357600080fd5b6102c65a03f115156126c457600080fd5b505050604051805190506007600060068660ff168154811015156126e457fe5b906000526020600020900160009054906101000a900473ffffffffffffffffffffffffffffffffffffffff1673ffffffffffffffffffffffffffffffffffffffff1673ffffffffffffffffffffffffffffffffffffffff16815260200190815260200160002060000160019054906101000a900461ffff16600360009054906101000a900473ffffffffffffffffffffffffffffffffffffffff1673ffffffffffffffffffffffffffffffffffffffff1663c3d9261b60068760ff168154811015156127ac57fe5b906000526020600020900160009054906101000a900473ffffffffffffffffffffffffffffffffffffffff166000604051602001526040518263ffffffff167c0100000000000000000000000000000000000000000000000000000000028152600401808273ffffffffffffffffffffffffffffffffffffffff1673ffffffffffffffffffffffffffffffffffffffff168152602001915050602060405180830381600087803b151561285e57600080fd5b6102c65a03f1151561286f57600080fd5b5050506040518051905060ff160261ffff166040518363ffffffff167c0100000000000000000000000000000000000000000000000000000000028152600401808373ffffffffffffffffffffffffffffffffffffffff1673ffffffffffffffffffffffffffffffffffffffff1681526020018260030b60030b815260200192505050600060405180830381600087803b151561290b57600080fd5b6102c65a03f1151561291c57600080fd5b505050600360009054906101000a900473ffffffffffffffffffffffffffffffffffffffff1673ffffffffffffffffffffffffffffffffffffffff1663c2b4b52860068360ff1681548110151561296f57fe5b906000526020600020900160009054906101000a900473ffffffffffffffffffffffffffffffffffffffff166007600060068660ff168154811015156129b157fe5b906000526020600020900160009054906101000a900473ffffffffffffffffffffffffffffffffffffffff1673ffffffffffffffffffffffffffffffffffffffff1673ffffffffffffffffffffffffffffffffffffffff16815260200190815260200160002060000160019054906101000a900461ffff166040518363ffffffff167c0100000000000000000000000000000000000000000000000000000000028152600401808373ffffffffffffffffffffffffffffffffffffffff1673ffffffffffffffffffffffffffffffffffffffff1681526020018261ffff1661ffff16815260200192505050600060405180830381600087803b1515612ab557600080fd5b6102c65a03f11515612ac657600080fd5b5050505b80806001019150506120ab565b612ae9565b828060010193505061150e565b5050505050565b815481835581811511612b1757818360005260206000209182019101612b169190612b51565b5b505050565b5080546000825590600052602060002090810190612b3a9190612b51565b50565b602060405190810160405280600081525090565b612b7391905b80821115612b6f576000816000905550600101612b57565b5090565b905600a165627a7a723058201dec3e37cc5a44bfbab79ccd07ad2b17cfa676b16f7fc3d0dd184af7fbaabc920029",
  "source": "pragma solidity ^0.4.11;\n\nimport \"./mortal.sol\";\nimport \"./OliOrigin.sol\";\nimport \"./OliCoin.sol\";\nimport \"./DynamicGridFee.sol\";\n\ncontract ParentAuction is mortal{\n    //Account Details Callback function\n    OliOrigin origin;\n    function setOliOrigin(address addr) { origin = OliOrigin(addr); }\n    //Earn OliCoins\n    OliCoin coin;\n    function setOliCoin(address addr) { coin = OliCoin(addr); }\n    //Bids passing to parent auction\n    //ParentAuction auction;\n    //function setParentAddress(address addr) { auction = ParentAuction(addr); }\n    //gridFee\n    DynamicGridFee dgfee;\n    function setDynamicGridFee(address addr) { dgfee = DynamicGridFee(addr); }\n\n    //uint32 tid;\n    mapping (uint32 => bool) tid;\n    \n    //set conntected transformer\n    function set_ContractAddress(uint32 _tid, bool _tf) onlyowner{\n        tid[_tid] = _tf;\n    }\n\n    address[] _producer;    address[] _consumer;\n    \n    struct Details {\n        uint8 rate; // cents/KW\n        uint16 amount; // Kw\n    }\n    //Bidders Mapping\n    mapping (address => Details) GenBid;\n    mapping (address => Details) ConsBid;\n    mapping (uint8 => uint16) SRate;\n    mapping (uint8 => uint16) DRate;\n    uint8 public maxRate;  uint8 minRate=10;\n    //Bidders event recording\n    event NewGenBid(address indexed gaddr, uint8 grate, uint16 gamount);\n    event NewConBid(address indexed caddr, uint8 crate, uint16 camount);\n    //New mcp\n    event NewMcp(uint8 cbid);\n\n    function bid(uint16 _amount, uint8 _rate) {\n        //Mapping Producer's bidding\n        if ((origin.get_oliType(msg.sender)>=uint8(0))&&(origin.get_oliType(msg.sender)<=uint8(5))&&(_amount>uint16(0))&&(tid[origin.get_oliTrafoid(tx.origin)])) {\n            GenBid[msg.sender] = Details (_rate, _amount); \n            if (_rate > maxRate) {\n                maxRate = _rate;\n            }\n            if (_rate < minRate) {\n                minRate = _rate;\n            }\n            SRate[_rate] += _amount;\n            NewGenBid (msg.sender,_rate, _amount);\n            _producer.push(msg.sender);\n        }\n        //Mapping Consumer's bidding\n        if ((origin.get_oliType(msg.sender) > uint8(5))&&(origin.get_oliType(msg.sender) <= uint8(7))&&(_amount>uint16(0))&&(tid[origin.get_oliTrafoid(tx.origin)])) {\n            ConsBid[msg.sender] = Details (_rate,_amount);\n            if (_rate > maxRate) {\n                maxRate = _rate;\n            }\n            if (_rate < minRate) {\n                minRate = _rate;\n            }\n            DRate[_rate] += _amount;\n            NewConBid (msg.sender, _rate, _amount);\n            _consumer.push(msg.sender);\n        }\n    }\n\n    //Calculating MCP\n    function breakEven() {\n        //Supply/Demand Curve Plotting\n        uint8 _max = maxRate;\n        for (var y=1;y<=maxRate;y++) {\n            SRate[y] += SRate[y-1];\n            DRate[_max-1] += DRate[_max];\n            _max--;\n        }\n\n        //Break-Even Finder\n        for (var v = 0; v <= maxRate; v++) {\n            if (SRate[v] >= DRate[v]) {\n                if (DRate[v] > SRate[v-1]) {\n                    NewMcp(v);\n                }\n                else {\n                    NewMcp(v-1);\n                    v--;\n                }\n                //Losers/Winners Mapping also add bool T/F, about winner/loser\n                for (var q = 0; q < _producer.length; q++){\n                    if(GenBid[_producer[q]].rate <= v) {\n                        //Reward=rate-gFee\n                        coin.set_OliCoinBalance(_producer[q], int32(((GenBid[_producer[q]].rate-dgfee.get_dGFee(_producer[q])) * GenBid[_producer[q]].amount)));\n                        //GSO reward\n                        coin.set_OliCoinBalance(origin.get_gsoAddr(origin.get_oliTrafoid(_producer[q])), int32(dgfee.get_dGFee(_producer[q])*GenBid[_producer[q]].amount));\n                        dgfee.set_trafocamount(_producer[q], GenBid[_producer[q]].amount);\n                    }\n                }\n                for (var r = 0; r < _consumer.length; r++){\n                    if(ConsBid[_consumer[r]].rate >= v) {\n                        //Payable=rate+gfee\n                        coin.set_OliCoinBalance(_consumer[r], -int32(((ConsBid[_consumer[r]].rate+dgfee.get_dGFee(_consumer[r])) * ConsBid[_consumer[r]].amount)));\n                        //GSO Reward\n                        coin.set_OliCoinBalance(origin.get_gsoAddr(origin.get_oliTrafoid(_consumer[r])), int32(dgfee.get_dGFee(_consumer[r])*GenBid[_consumer[r]].amount));\n                        dgfee.set_traforamount(_consumer[r], GenBid[_consumer[r]].amount);\n                    }\n                }\n            break;\n            }\n        }\n    }\n\n    //reset\n    function resett() {\n        delete _producer;\n        delete _consumer;\n        for (var w=0;w<maxRate;w++) {\n            SRate[w]=0;\n            DRate[w]=0;\n        }\n        maxRate=10;\n        minRate=10;\n        dgfee.set_tgridFee(67376);\n        dgfee.set_tgridFee(67377);\n    }\n\n    function get_producer() constant returns (address[]) {\n        return _producer;\n    }\n    function get_consumer() constant returns (address[]) {\n        return _consumer;\n    }\n\n    function get_sRate(uint8 _rate) constant returns (uint16) {\n        return SRate[_rate];\n    }\n\n    function get_dRate(uint8 _rate) constant returns (uint16) {\n        return DRate[_rate];\n    }\n\n\n}\n",
  "sourcePath": "D:\\02_OLI\\Projects\\truffle_auto\\contracts\\ParentAuction.sol",
  "compiler": {
    "name": "solc",
    "version": "0.4.19+commit.c4cbbb05.Emscripten.clang"
  },
  "schemaVersion": "2.0.0",
  "updatedAt": "2018-05-03T19:01:26.211Z"
}